{
  "contractName": "Did",
  "abi": [
    {
      "anonymous": false,
      "inputs": [
        {
          "indexed": false,
          "internalType": "uint256",
          "name": "id",
          "type": "uint256"
        },
        {
          "indexed": false,
          "internalType": "string",
          "name": "hash",
          "type": "string"
        },
        {
          "indexed": false,
          "internalType": "string",
          "name": "description",
          "type": "string"
        },
        {
          "indexed": false,
          "internalType": "uint256",
          "name": "tipAmount",
          "type": "uint256"
        },
        {
          "indexed": false,
          "internalType": "address payable",
          "name": "author",
          "type": "address"
        },
        {
          "indexed": false,
          "internalType": "uint256",
          "name": "commentCount",
          "type": "uint256"
        }
      ],
      "name": "ImageCreated",
      "type": "event"
    },
    {
      "anonymous": false,
      "inputs": [
        {
          "indexed": false,
          "internalType": "uint256",
          "name": "id",
          "type": "uint256"
        },
        {
          "indexed": false,
          "internalType": "string",
          "name": "hash",
          "type": "string"
        },
        {
          "indexed": false,
          "internalType": "string",
          "name": "description",
          "type": "string"
        },
        {
          "indexed": false,
          "internalType": "uint256",
          "name": "tipAmount",
          "type": "uint256"
        }
      ],
      "name": "ImageTipped",
      "type": "event"
    },
    {
      "inputs": [
        {
          "internalType": "address",
          "name": "",
          "type": "address"
        }
      ],
      "name": "DidName",
      "outputs": [
        {
          "internalType": "string",
          "name": "",
          "type": "string"
        }
      ],
      "stateMutability": "view",
      "type": "function",
      "constant": true
    },
    {
      "inputs": [
        {
          "internalType": "uint256",
          "name": "",
          "type": "uint256"
        }
      ],
      "name": "approveList",
      "outputs": [
        {
          "internalType": "address",
          "name": "applyer",
          "type": "address"
        },
        {
          "internalType": "bool",
          "name": "isApproved",
          "type": "bool"
        }
      ],
      "stateMutability": "view",
      "type": "function",
      "constant": true
    },
    {
      "inputs": [
        {
          "internalType": "address",
          "name": "",
          "type": "address"
        },
        {
          "internalType": "uint256",
          "name": "",
          "type": "uint256"
        }
      ],
      "name": "approveListMap",
      "outputs": [
        {
          "internalType": "address",
          "name": "applyer",
          "type": "address"
        },
        {
          "internalType": "bool",
          "name": "isApproved",
          "type": "bool"
        }
      ],
      "stateMutability": "view",
      "type": "function",
      "constant": true
    },
    {
      "inputs": [
        {
          "internalType": "uint256",
          "name": "",
          "type": "uint256"
        }
      ],
      "name": "certificate",
      "outputs": [
        {
          "internalType": "string",
          "name": "name",
          "type": "string"
        },
        {
          "internalType": "string",
          "name": "content",
          "type": "string"
        },
        {
          "internalType": "string",
          "name": "issueDate",
          "type": "string"
        },
        {
          "internalType": "bool",
          "name": "isApproved",
          "type": "bool"
        },
        {
          "internalType": "address",
          "name": "approvedBy",
          "type": "address"
        },
        {
          "internalType": "address",
          "name": "requiredApprover",
          "type": "address"
        }
      ],
      "stateMutability": "view",
      "type": "function",
      "constant": true
    },
    {
      "inputs": [
        {
          "internalType": "address",
          "name": "",
          "type": "address"
        }
      ],
      "name": "certificateCount",
      "outputs": [
        {
          "internalType": "uint256",
          "name": "",
          "type": "uint256"
        }
      ],
      "stateMutability": "view",
      "type": "function",
      "constant": true
    },
    {
      "inputs": [
        {
          "internalType": "address",
          "name": "",
          "type": "address"
        },
        {
          "internalType": "uint256",
          "name": "",
          "type": "uint256"
        }
      ],
      "name": "certificateMap",
      "outputs": [
        {
          "internalType": "string",
          "name": "name",
          "type": "string"
        },
        {
          "internalType": "string",
          "name": "content",
          "type": "string"
        },
        {
          "internalType": "string",
          "name": "issueDate",
          "type": "string"
        },
        {
          "internalType": "bool",
          "name": "isApproved",
          "type": "bool"
        },
        {
          "internalType": "address",
          "name": "approvedBy",
          "type": "address"
        },
        {
          "internalType": "address",
          "name": "requiredApprover",
          "type": "address"
        }
      ],
      "stateMutability": "view",
      "type": "function",
      "constant": true
    },
    {
      "inputs": [],
      "name": "imageCount",
      "outputs": [
        {
          "internalType": "uint256",
          "name": "",
          "type": "uint256"
        }
      ],
      "stateMutability": "view",
      "type": "function",
      "constant": true
    },
    {
      "inputs": [
        {
          "internalType": "uint256",
          "name": "",
          "type": "uint256"
        }
      ],
      "name": "imageMap",
      "outputs": [
        {
          "internalType": "uint256",
          "name": "id",
          "type": "uint256"
        },
        {
          "internalType": "string",
          "name": "hash",
          "type": "string"
        },
        {
          "internalType": "string",
          "name": "description",
          "type": "string"
        },
        {
          "internalType": "uint256",
          "name": "tipAmount",
          "type": "uint256"
        },
        {
          "internalType": "address payable",
          "name": "author",
          "type": "address"
        }
      ],
      "stateMutability": "view",
      "type": "function",
      "constant": true
    },
    {
      "inputs": [
        {
          "internalType": "address",
          "name": "",
          "type": "address"
        },
        {
          "internalType": "uint256",
          "name": "",
          "type": "uint256"
        }
      ],
      "name": "imageMapping",
      "outputs": [
        {
          "internalType": "uint256",
          "name": "id",
          "type": "uint256"
        },
        {
          "internalType": "string",
          "name": "hash",
          "type": "string"
        },
        {
          "internalType": "string",
          "name": "description",
          "type": "string"
        },
        {
          "internalType": "uint256",
          "name": "tipAmount",
          "type": "uint256"
        },
        {
          "internalType": "address payable",
          "name": "author",
          "type": "address"
        }
      ],
      "stateMutability": "view",
      "type": "function",
      "constant": true
    },
    {
      "inputs": [
        {
          "internalType": "uint256",
          "name": "",
          "type": "uint256"
        }
      ],
      "name": "images",
      "outputs": [
        {
          "internalType": "uint256",
          "name": "id",
          "type": "uint256"
        },
        {
          "internalType": "string",
          "name": "hash",
          "type": "string"
        },
        {
          "internalType": "string",
          "name": "description",
          "type": "string"
        },
        {
          "internalType": "uint256",
          "name": "tipAmount",
          "type": "uint256"
        },
        {
          "internalType": "address payable",
          "name": "author",
          "type": "address"
        }
      ],
      "stateMutability": "view",
      "type": "function",
      "constant": true
    },
    {
      "inputs": [
        {
          "internalType": "uint256",
          "name": "",
          "type": "uint256"
        }
      ],
      "name": "profile",
      "outputs": [
        {
          "internalType": "string",
          "name": "name",
          "type": "string"
        },
        {
          "internalType": "string",
          "name": "email",
          "type": "string"
        },
        {
          "internalType": "string",
          "name": "content",
          "type": "string"
        }
      ],
      "stateMutability": "view",
      "type": "function",
      "constant": true
    },
    {
      "inputs": [
        {
          "internalType": "address",
          "name": "",
          "type": "address"
        }
      ],
      "name": "profileMap",
      "outputs": [
        {
          "internalType": "string",
          "name": "name",
          "type": "string"
        },
        {
          "internalType": "string",
          "name": "email",
          "type": "string"
        },
        {
          "internalType": "string",
          "name": "content",
          "type": "string"
        }
      ],
      "stateMutability": "view",
      "type": "function",
      "constant": true
    },
    {
      "inputs": [],
      "name": "getImageCount",
      "outputs": [
        {
          "internalType": "uint256",
          "name": "",
          "type": "uint256"
        }
      ],
      "stateMutability": "view",
      "type": "function",
      "constant": true
    },
    {
      "inputs": [
        {
          "internalType": "address",
          "name": "_address",
          "type": "address"
        }
      ],
      "name": "getUserProfile",
      "outputs": [
        {
          "internalType": "string",
          "name": "",
          "type": "string"
        },
        {
          "internalType": "string",
          "name": "",
          "type": "string"
        },
        {
          "internalType": "string",
          "name": "",
          "type": "string"
        }
      ],
      "stateMutability": "view",
      "type": "function",
      "constant": true
    },
    {
      "inputs": [
        {
          "internalType": "address",
          "name": "_address",
          "type": "address"
        }
      ],
      "name": "getUserCertificate",
      "outputs": [
        {
          "components": [
            {
              "internalType": "string",
              "name": "name",
              "type": "string"
            },
            {
              "internalType": "string",
              "name": "content",
              "type": "string"
            },
            {
              "internalType": "string",
              "name": "issueDate",
              "type": "string"
            },
            {
              "internalType": "bool",
              "name": "isApproved",
              "type": "bool"
            },
            {
              "internalType": "address",
              "name": "approvedBy",
              "type": "address"
            },
            {
              "internalType": "address",
              "name": "requiredApprover",
              "type": "address"
            }
          ],
          "internalType": "struct Did.Certificate[]",
          "name": "",
          "type": "tuple[]"
        }
      ],
      "stateMutability": "view",
      "type": "function",
      "constant": true
    },
    {
      "inputs": [
        {
          "internalType": "string",
          "name": "_imgHash",
          "type": "string"
        },
        {
          "internalType": "string",
          "name": "_description",
          "type": "string"
        }
      ],
      "name": "uploadImage",
      "outputs": [],
      "stateMutability": "nonpayable",
      "type": "function"
    },
    {
      "inputs": [
        {
          "internalType": "uint256",
          "name": "_id",
          "type": "uint256"
        },
        {
          "internalType": "uint256",
          "name": "amount",
          "type": "uint256"
        }
      ],
      "name": "tipImageOwner",
      "outputs": [],
      "stateMutability": "payable",
      "type": "function",
      "payable": true
    },
    {
      "inputs": [
        {
          "internalType": "string",
          "name": "_name",
          "type": "string"
        },
        {
          "internalType": "string",
          "name": "_email",
          "type": "string"
        },
        {
          "internalType": "string",
          "name": "_content",
          "type": "string"
        }
      ],
      "name": "store",
      "outputs": [],
      "stateMutability": "nonpayable",
      "type": "function"
    },
    {
      "inputs": [],
      "name": "retrieve",
      "outputs": [
        {
          "internalType": "string",
          "name": "",
          "type": "string"
        },
        {
          "internalType": "string",
          "name": "",
          "type": "string"
        },
        {
          "internalType": "string",
          "name": "",
          "type": "string"
        }
      ],
      "stateMutability": "view",
      "type": "function",
      "constant": true
    },
    {
      "inputs": [],
      "name": "getCertificateCount",
      "outputs": [
        {
          "internalType": "uint256",
          "name": "",
          "type": "uint256"
        }
      ],
      "stateMutability": "view",
      "type": "function",
      "constant": true
    },
    {
      "inputs": [
        {
          "internalType": "string",
          "name": "_name",
          "type": "string"
        },
        {
          "internalType": "string",
          "name": "_content",
          "type": "string"
        },
        {
          "internalType": "string",
          "name": "_issueDate",
          "type": "string"
        },
        {
          "internalType": "address",
          "name": "_approver",
          "type": "address"
        }
      ],
      "name": "addCertificate",
      "outputs": [],
      "stateMutability": "nonpayable",
      "type": "function"
    },
    {
      "inputs": [
        {
          "internalType": "address",
          "name": "_address",
          "type": "address"
        },
        {
          "internalType": "uint256",
          "name": "_index",
          "type": "uint256"
        }
      ],
      "name": "approveCertificate",
      "outputs": [],
      "stateMutability": "nonpayable",
      "type": "function"
    },
    {
      "inputs": [
        {
          "internalType": "address",
          "name": "_address",
          "type": "address"
        }
      ],
      "name": "approveListMapping",
      "outputs": [
        {
          "components": [
            {
              "internalType": "address",
              "name": "applyer",
              "type": "address"
            },
            {
              "internalType": "bool",
              "name": "isApproved",
              "type": "bool"
            }
          ],
          "internalType": "struct Did.ApproveList[]",
          "name": "",
          "type": "tuple[]"
        }
      ],
      "stateMutability": "view",
      "type": "function",
      "constant": true
    }
  ],
  "bytecode": "0x60806040526000805534801561001457600080fd5b50611e7f806100246000396000f3fe6080604052600436106101405760003560e01c80638cf67bbb116100b6578063a91b83141161006f578063a91b8314146103c5578063c43b5c68146103e5578063c868af8e14610412578063ddbc0c5b1461043f578063f97c44a91461045f578063ff7138871461047457600080fd5b80638cf67bbb146102f05780638f00f6101461030357806392053b631461033057806393484c8714610346578063987ee15614610366578063a80b85141461038657600080fd5b8063463eaafb11610108578063463eaafb146102225780634ae697131461024457806372cd2b1a14610264578063792a7e261461028457806384856482146102a45780638809f727146102c457600080fd5b80630bfdc7d71461014557806316115cf81461017b5780632e64cec1146101ad578063365625d9146101d1578063445e547014610202575b600080fd5b34801561015157600080fd5b506101656101603660046117a6565b610494565b6040516101729190611815565b60405180910390f35b34801561018757600080fd5b5061019b6101963660046118e5565b6107bc565b604051610172969594939291906118fe565b3480156101b957600080fd5b506101c26109b1565b60405161017293929190611960565b3480156101dd57600080fd5b506101f16101ec3660046118e5565b610b82565b6040516101729594939291906119a3565b34801561020e57600080fd5b5061019b61021d3660046119f1565b610ccb565b34801561022e57600080fd5b5061024261023d3660046119f1565b610cf1565b005b34801561025057600080fd5b5061024261025f366004611abe565b610df2565b34801561027057600080fd5b506101c261027f3660046118e5565b610e90565b34801561029057600080fd5b506101f161029f3660046119f1565b611062565b3480156102b057600080fd5b506101f16102bf3660046118e5565b61108f565b3480156102d057600080fd5b50336000908152600960205260409020545b604051908152602001610172565b6102426102fe366004611b46565b6110c4565b34801561030f57600080fd5b506102e261031e3660046117a6565b60096020526000908152604090205481565b34801561033c57600080fd5b506102e260005481565b34801561035257600080fd5b506101c26103613660046117a6565b611139565b34801561037257600080fd5b506101c26103813660046117a6565b611154565b34801561039257600080fd5b506103a66103a13660046118e5565b611330565b604080516001600160a01b039093168352901515602083015201610172565b3480156103d157600080fd5b506102426103e0366004611b68565b611365565b3480156103f157600080fd5b506104056104003660046117a6565b611401565b6040516101729190611bcc565b34801561041e57600080fd5b5061043261042d3660046117a6565b61148f565b6040516101729190611c26565b34801561044b57600080fd5b506103a661045a3660046119f1565b611529565b34801561046b57600080fd5b506000546102e2565b34801561048057600080fd5b5061024261048f366004611c39565b61156c565b6001600160a01b0381166000908152600960205260408120546060919067ffffffffffffffff8111156104c9576104c9611a1b565b60405190808252806020026020018201604052801561054757816020015b6105346040518060c0016040528060608152602001606081526020016060815260200160001515815260200160006001600160a01b0316815260200160006001600160a01b031681525090565b8152602001906001900390816104e75790505b50905060005b6001600160a01b0384166000908152600960205260409020548110156107b5576001600160a01b038416600090815260086020908152604080832084845290915290819020815160c081019092528054829082906105aa90611cd2565b80601f01602080910402602001604051908101604052809291908181526020018280546105d690611cd2565b80156106235780601f106105f857610100808354040283529160200191610623565b820191906000526020600020905b81548152906001019060200180831161060657829003601f168201915b5050505050815260200160018201805461063c90611cd2565b80601f016020809104026020016040519081016040528092919081815260200182805461066890611cd2565b80156106b55780601f1061068a576101008083540402835291602001916106b5565b820191906000526020600020905b81548152906001019060200180831161069857829003601f168201915b505050505081526020016002820180546106ce90611cd2565b80601f01602080910402602001604051908101604052809291908181526020018280546106fa90611cd2565b80156107475780601f1061071c57610100808354040283529160200191610747565b820191906000526020600020905b81548152906001019060200180831161072a57829003601f168201915b5050509183525050600382015460ff8116151560208301526001600160a01b0361010090910481166040830152600490920154909116606090910152825183908390811061079757610797611d0d565b602002602001018190525080806107ad90611d39565b91505061054d565b5092915050565b600181815481106107cc57600080fd5b90600052602060002090600502016000915090508060000180546107ef90611cd2565b80601f016020809104026020016040519081016040528092919081815260200182805461081b90611cd2565b80156108685780601f1061083d57610100808354040283529160200191610868565b820191906000526020600020905b81548152906001019060200180831161084b57829003601f168201915b50505050509080600101805461087d90611cd2565b80601f01602080910402602001604051908101604052809291908181526020018280546108a990611cd2565b80156108f65780601f106108cb576101008083540402835291602001916108f6565b820191906000526020600020905b8154815290600101906020018083116108d957829003601f168201915b50505050509080600201805461090b90611cd2565b80601f016020809104026020016040519081016040528092919081815260200182805461093790611cd2565b80156109845780601f1061095957610100808354040283529160200191610984565b820191906000526020600020905b81548152906001019060200180831161096757829003601f168201915b5050506003840154600490940154929360ff8116936001600160a01b036101009092048216935016905086565b336000908152600560205260409020805460609182918291906001820190600283019083906109df90611cd2565b80601f0160208091040260200160405190810160405280929190818152602001828054610a0b90611cd2565b8015610a585780601f10610a2d57610100808354040283529160200191610a58565b820191906000526020600020905b815481529060010190602001808311610a3b57829003601f168201915b50505050509250818054610a6b90611cd2565b80601f0160208091040260200160405190810160405280929190818152602001828054610a9790611cd2565b8015610ae45780601f10610ab957610100808354040283529160200191610ae4565b820191906000526020600020905b815481529060010190602001808311610ac757829003601f168201915b50505050509150808054610af790611cd2565b80601f0160208091040260200160405190810160405280929190818152602001828054610b2390611cd2565b8015610b705780601f10610b4557610100808354040283529160200191610b70565b820191906000526020600020905b815481529060010190602001808311610b5357829003601f168201915b50505050509050925092509250909192565b60066020526000908152604090208054600182018054919291610ba490611cd2565b80601f0160208091040260200160405190810160405280929190818152602001828054610bd090611cd2565b8015610c1d5780601f10610bf257610100808354040283529160200191610c1d565b820191906000526020600020905b815481529060010190602001808311610c0057829003601f168201915b505050505090806002018054610c3290611cd2565b80601f0160208091040260200160405190810160405280929190818152602001828054610c5e90611cd2565b8015610cab5780601f10610c8057610100808354040283529160200191610cab565b820191906000526020600020905b815481529060010190602001808311610c8e57829003601f168201915b5050505060038301546004909301549192916001600160a01b0316905085565b60086020908152600092835260408084209091529082529020805481906107ef90611cd2565b6001600160a01b03821660009081526008602090815260408083208484529091528120600301805460016001600160a81b03199091166101003302171790555b336000908152600b6020526040902054811015610ded57336000908152600b6020526040902080546001600160a01b038516919083908110610d7557610d75611d0d565b6000918252602090912001546001600160a01b03161415610ddb57336000908152600b6020526040902080546001919083908110610db557610db5611d0d565b60009182526020909120018054911515600160a01b0260ff60a01b199092169190911790555b80610de581611d39565b915050610d31565b505050565b60408051606081018252848152602080820185905281830184905233600090815260058252929092208151805192939192610e3092849201906116f1565b506020828101518051610e4992600185019201906116f1565b5060408201518051610e659160028401916020909101906116f1565b5050336000908152600a602090815260409091208551610e8a935090918601906116f1565b50505050565b60038181548110610ea057600080fd5b9060005260206000209060030201600091509050806000018054610ec390611cd2565b80601f0160208091040260200160405190810160405280929190818152602001828054610eef90611cd2565b8015610f3c5780601f10610f1157610100808354040283529160200191610f3c565b820191906000526020600020905b815481529060010190602001808311610f1f57829003601f168201915b505050505090806001018054610f5190611cd2565b80601f0160208091040260200160405190810160405280929190818152602001828054610f7d90611cd2565b8015610fca5780601f10610f9f57610100808354040283529160200191610fca565b820191906000526020600020905b815481529060010190602001808311610fad57829003601f168201915b505050505090806002018054610fdf90611cd2565b80601f016020809104026020016040519081016040528092919081815260200182805461100b90611cd2565b80156110585780601f1061102d57610100808354040283529160200191611058565b820191906000526020600020905b81548152906001019060200180831161103b57829003601f168201915b5050505050905083565b600760209081526000928352604080842090915290825290208054600182018054919291610ba490611cd2565b6002818154811061109f57600080fd5b60009182526020909120600590910201805460018201805491935090610ba490611cd2565b6000828152600660205260408120600381018054919284926110e7908490611d54565b909155505060038101546040517f0d3cfd682983ef1972123c2d3c1d06c0aa262df81c420a4c1ef19ec806a205789161112c9186916001860191600287019190611e0c565b60405180910390a1505050565b600560205260009081526040902080548190610ec390611cd2565b6001600160a01b03811660009081526005602052604090208054606091829182919060018201906002830190839061118b90611cd2565b80601f01602080910402602001604051908101604052809291908181526020018280546111b790611cd2565b80156112045780601f106111d957610100808354040283529160200191611204565b820191906000526020600020905b8154815290600101906020018083116111e757829003601f168201915b5050505050925081805461121790611cd2565b80601f016020809104026020016040519081016040528092919081815260200182805461124390611cd2565b80156112905780601f1061126557610100808354040283529160200191611290565b820191906000526020600020905b81548152906001019060200180831161127357829003601f168201915b505050505091508080546112a390611cd2565b80601f01602080910402602001604051908101604052809291908181526020018280546112cf90611cd2565b801561131c5780601f106112f15761010080835404028352916020019161131c565b820191906000526020600020905b8154815290600101906020018083116112ff57829003601f168201915b505050505090509250925092509193909250565b6004818154811061134057600080fd5b6000918252602090912001546001600160a01b0381169150600160a01b900460ff1682565b600082511161137357600080fd5b600081511161138157600080fd5b3361138b57600080fd5b60008054808252600660209081526040909220908155835190916113b69160018401918601906116f1565b5081516113cc90600283019060208501906116f1565b506000600382018190556004820180546001600160a01b03191633179055805490806113f783611d39565b9190505550505050565b6001600160a01b0381166000908152600b60209081526040808320805482518185028101850190935280835260609492939192909184015b8282101561148457600084815260209081902060408051808201909152908401546001600160a01b0381168252600160a01b900460ff16151581830152825260019092019101611439565b505050509050919050565b600a60205260009081526040902080546114a890611cd2565b80601f01602080910402602001604051908101604052809291908181526020018280546114d490611cd2565b80156115215780601f106114f657610100808354040283529160200191611521565b820191906000526020600020905b81548152906001019060200180831161150457829003601f168201915b505050505081565b600b602052816000526040600020818154811061154557600080fd5b6000918252602090912001546001600160a01b0381169250600160a01b900460ff16905082565b6040805160c0810182528581526020808201869052818301859052600060608301819052608083018190526001600160a01b03851660a0840152338152600882528381206009835284822054825282529290922081518051929391926115d592849201906116f1565b5060208281015180516115ee92600185019201906116f1565b506040820151805161160a9160028401916020909101906116f1565b50606082015160038201805460808501516001600160a81b0319909116921515610100600160a81b031916929092176101006001600160a01b039384160217905560a090920151600490910180546001600160a01b0319169190921617905533600090815260096020526040812080549161168483611d39565b90915550506001600160a01b039081166000908152600b60209081526040808320815180830190925233825281830184815281546001810183559185529290932090519201805491511515600160a01b026001600160a81b03199092169290931691909117179055505050565b8280546116fd90611cd2565b90600052602060002090601f01602090048101928261171f5760008555611765565b82601f1061173857805160ff1916838001178555611765565b82800160010185558215611765579182015b8281111561176557825182559160200191906001019061174a565b50611771929150611775565b5090565b5b808211156117715760008155600101611776565b80356001600160a01b03811681146117a157600080fd5b919050565b6000602082840312156117b857600080fd5b6117c18261178a565b9392505050565b6000815180845260005b818110156117ee576020818501810151868301820152016117d2565b81811115611800576000602083870101525b50601f01601f19169290920160200192915050565b60006020808301818452808551808352604092508286019150828160051b87010184880160005b838110156118d757603f19898403018552815160c08151818652611862828701826117c8565b915050888201518582038a87015261187a82826117c8565b915050878201518582038987015261189282826117c8565b6060848101511515908801526080808501516001600160a01b039081169189019190915260a0948501511693909601929092525050938601939086019060010161183c565b509098975050505050505050565b6000602082840312156118f757600080fd5b5035919050565b60c08152600061191160c08301896117c8565b828103602084015261192381896117c8565b9050828103604084015261193781886117c8565b951515606084015250506001600160a01b039283166080820152911660a0909101529392505050565b60608152600061197360608301866117c8565b828103602084015261198581866117c8565b9050828103604084015261199981856117c8565b9695505050505050565b85815260a0602082015260006119bc60a08301876117c8565b82810360408401526119ce81876117c8565b606084019590955250506001600160a01b03919091166080909101529392505050565b60008060408385031215611a0457600080fd5b611a0d8361178a565b946020939093013593505050565b634e487b7160e01b600052604160045260246000fd5b600082601f830112611a4257600080fd5b813567ffffffffffffffff80821115611a5d57611a5d611a1b565b604051601f8301601f19908116603f01168101908282118183101715611a8557611a85611a1b565b81604052838152866020858801011115611a9e57600080fd5b836020870160208301376000602085830101528094505050505092915050565b600080600060608486031215611ad357600080fd5b833567ffffffffffffffff80821115611aeb57600080fd5b611af787838801611a31565b94506020860135915080821115611b0d57600080fd5b611b1987838801611a31565b93506040860135915080821115611b2f57600080fd5b50611b3c86828701611a31565b9150509250925092565b60008060408385031215611b5957600080fd5b50508035926020909101359150565b60008060408385031215611b7b57600080fd5b823567ffffffffffffffff80821115611b9357600080fd5b611b9f86838701611a31565b93506020850135915080821115611bb557600080fd5b50611bc285828601611a31565b9150509250929050565b602080825282518282018190526000919060409081850190868401855b82811015611c1957815180516001600160a01b031685528601511515868501529284019290850190600101611be9565b5091979650505050505050565b6020815260006117c160208301846117c8565b60008060008060808587031215611c4f57600080fd5b843567ffffffffffffffff80821115611c6757600080fd5b611c7388838901611a31565b95506020870135915080821115611c8957600080fd5b611c9588838901611a31565b94506040870135915080821115611cab57600080fd5b50611cb887828801611a31565b925050611cc76060860161178a565b905092959194509250565b600181811c90821680611ce657607f821691505b60208210811415611d0757634e487b7160e01b600052602260045260246000fd5b50919050565b634e487b7160e01b600052603260045260246000fd5b634e487b7160e01b600052601160045260246000fd5b6000600019821415611d4d57611d4d611d23565b5060010190565b60008219821115611d6757611d67611d23565b500190565b8054600090600181811c9080831680611d8657607f831692505b6020808410821415611da857634e487b7160e01b600052602260045260246000fd5b83885260208801828015611dc35760018114611dd457611dff565b60ff19871682528282019750611dff565b60008981526020902060005b87811015611df957815484820152908601908401611de0565b83019850505b5050505050505092915050565b848152608060208201526000611e256080830186611d6c565b8281036040840152611e378186611d6c565b9150508260608301529594505050505056fea264697066735822122034b79f5269e74f60a52179d6ce080f50ff4bcee0b832e0f7c54a2f27e1bd0b8064736f6c634300080b0033",
  "immutableReferences": {},
  "source": "// SPDX-License-Identifier: MIT\r\npragma solidity ^0.8.0;\r\n\r\ncontract Did {\r\n\r\n    // string public name;\r\n    // string public email;\r\n    // string public content;\r\n    uint public imageCount=0;\r\n    Certificate[] public certificate;\r\n    Image[] public images;\r\n    Profile[] public profile;\r\n    ApproveList[] public approveList;\r\n    \r\n\r\n\r\n\r\n    struct Profile{\r\n        string name;\r\n        string email;\r\n        string content;\r\n    }\r\n\r\n    // This is a comment!\r\n    struct Certificate {\r\n        string name;\r\n        string content;\r\n        string issueDate;\r\n        bool isApproved;\r\n        address approvedBy;\r\n        address requiredApprover;\r\n    }\r\n\r\n    struct ApproveList{\r\n        address applyer;\r\n        bool isApproved;\r\n    }\r\n    \r\n    struct Image {\r\n        uint id;\r\n        string hash;\r\n        string description;\r\n        uint tipAmount;\r\n        address payable author;\r\n        \r\n    }\r\n\r\n    struct Comment{\r\n        string content;\r\n        address author;\r\n      \r\n    }\r\n\r\n    mapping(address => Profile) public profileMap;\r\n    mapping(uint => Image) public imageMap;\r\n    mapping (address => mapping (uint => Image)) public imageMapping; \r\n    mapping (address => mapping (uint => Certificate)) public certificateMap;\r\n    mapping (address => uint256) public certificateCount;\r\n    mapping (address => string) public DidName;\r\n    //mapping approver to the list of certificate that he/she need to approve\r\n    mapping (address => ApproveList[]) public approveListMap;\r\n\r\n   \r\n  \r\n    \r\n    \r\n    event ImageCreated(\r\n        uint id,\r\n        string hash,\r\n        string description,\r\n        uint tipAmount,\r\n        address payable author,\r\n        uint commentCount \r\n    );\r\n\r\n    event ImageTipped(\r\n        uint id,\r\n        string hash,\r\n        string description,\r\n        uint tipAmount\r\n    );\r\n\r\n\r\n    // function addComment(uint _imageId, string memory content) public{\r\n    //     // require(_id < imageCount, \"Invalid image ID\");\r\n        \r\n    //     // Image storage image = imageMap[ _id];\r\n        \r\n    //     // // Check if the Image struct has been properly initialized by checking the author address\r\n    //     // require(image.author != address(0), \"Image struct not initialized\");\r\n\r\n    //     require(_imageId < images.length, \"Post does not exist.\");\r\n    //     require(images[_imageId].commentCount < 10, \"Comment limit reached.\");\r\n    //     Comment storage newComment = comments[images[_imageId].commentCount];\r\n    //     newComment.content = content;\r\n    //     newComment.author = msg.sender;\r\n    //     images[_imageId].commentCount++;\r\n       \r\n    // }\r\n\r\n    // function getAllComments(uint _id) public view returns (Comment[] memory) {\r\n    //     require(_id < imageCount, \"Invalid image ID\");\r\n\r\n    //     Image storage image = imageMap[ _id];\r\n\r\n    //     Comment [] memory comments = new Comment[](image.commentCount);\r\n\r\n    //     for (uint i = 0; i < image.commentCount; i++) {\r\n    //         comments[i] = image.comments[i];\r\n    //     }\r\n\r\n    //     return comments;\r\n    // }\r\n\r\n    // function getComments(uint _imageId) public view returns (Comment[10] memory ) {\r\n    //     require(_imageId < images.length, \"Post does not exist.\");\r\n        \r\n    //     //loop through the comments array and return the comments\r\n    //      return images[_imageId].comments;\r\n    // }\r\n\r\n    function getImageCount() public view returns (uint) {\r\n        return imageCount;\r\n    }\r\n\r\n    function getUserProfile(address _address) public view returns (string memory, string memory, string memory) {\r\n        return (profileMap[_address].name, profileMap[_address].email, profileMap[_address].content);\r\n    }\r\n\r\n    function getUserCertificate(address _address) public view returns (Certificate[] memory) {\r\n        // Certificate[] memory certificates;\r\n        // for (uint i = 0; i < certificateCount[_address]; i++) {\r\n        //     certificates[i] = certificateMap[_address][i];\r\n        // }    \r\n        // return certificates;\r\n        //prevent the revert error\r\n        Certificate[] memory certificates = new Certificate[](certificateCount[_address]);\r\n        for (uint i = 0; i < certificateCount[_address]; i++) {\r\n            certificates[i] = certificateMap[_address][i];\r\n        }\r\n        return certificates;\r\n    }\r\n\r\n\r\n    function uploadImage(string memory _imgHash, string memory _description) public {\r\n        // Make sure the image hash exists\r\n        require(bytes(_imgHash).length > 0);\r\n        // Make sure image description exists\r\n        require(bytes(_description).length > 0);\r\n        // Make sure uploader address exists\r\n        require(msg.sender!=address(0));\r\n        \r\n        // create image with 0 commentCount\r\n        // Image storage image = imageMap[imageCount];\r\n        // image.id = imageCount;\r\n        // image.hash = _imgHash;\r\n        // image.description = _description;\r\n        // image.tipAmount = 0;\r\n        // image.author = payable(msg.sender);\r\n        // image.commentCount = 0;\r\n        \r\n        \r\n        Image storage image = imageMap[imageCount];\r\n        image.id = imageCount;\r\n        image.hash = _imgHash;\r\n        image.description = _description;\r\n        image.tipAmount = 0;\r\n        image.author = payable(msg.sender);\r\n\r\n        imageCount++;\r\n        \r\n    }\r\n\r\n    function tipImageOwner(uint _id, uint amount) public payable {\r\n        // Fetch the image\r\n        Image storage _image = imageMap[ _id];     \r\n        _image.tipAmount += amount;\r\n        // Trigger an event\r\n        emit ImageTipped(_id, _image.hash, _image.description, _image.tipAmount);   \r\n    }\r\n\r\n\r\n\r\n    function store(string memory _name, string memory _email, string memory _content) public {\r\n        //store the data in the profile\r\n        profileMap[msg.sender] = Profile(_name, _email, _content);\r\n        DidName[msg.sender] = _name;\r\n\r\n    }\r\n    \r\n    function retrieve() public view returns (string memory  ,string memory  ,string memory ){\r\n\r\n        return (profileMap[msg.sender].name, profileMap[msg.sender].email, profileMap[msg.sender].content);\r\n    }\r\n\r\n\r\n    function getCertificateCount() public view returns (uint256) {\r\n        return certificateCount[msg.sender];\r\n    }\r\n\r\n\r\n    function addCertificate(string memory _name, string memory _content, string memory _issueDate, address _approver) public {\r\n        certificateMap[msg.sender][certificateCount[msg.sender]] = Certificate(_name, _content, _issueDate, false,address(0),_approver);\r\n        certificateCount[msg.sender]++; \r\n        //add the certificate to the specific approver's approveList\r\n        approveListMap[_approver].push(ApproveList(msg.sender, false));\r\n    }\r\n\r\n    //approve certificate of a specific index and address\r\n    function approveCertificate(address _address, uint256 _index) public {\r\n        certificateMap[_address][_index].isApproved = true;\r\n        certificateMap[_address][_index].approvedBy = msg.sender;\r\n\r\n        //change the approveList of the msg.sender to true\r\n        for (uint i = 0; i < approveListMap[msg.sender].length; i++) {\r\n            if (approveListMap[msg.sender][i].applyer == _address) {\r\n                approveListMap[msg.sender][i].isApproved = true;\r\n            }\r\n        }\r\n\r\n    }\r\n\r\n    function approveListMapping(address _address) public view returns (ApproveList[] memory) {\r\n        return approveListMap[_address];\r\n    }\r\n\r\n    \r\n}\r\n\r\n",
  "sourcePath": "C:\\Users\\Michael\\Documents\\GitHub\\fyp_did\\did_frontend\\contracts\\Did.sol",
  "compiler": {
    "name": "solc",
    "version": "0.8.11+commit.d7f03943.Emscripten.clang"
  },
  "schemaVersion": "3.4.11",
  "updatedAt": "2023-04-05T10:24:49.466Z",
  "networkType": "ethereum",
  "devdoc": {
    "kind": "dev",
    "methods": {},
    "version": 1
  },
  "userdoc": {
    "kind": "user",
    "methods": {},
    "version": 1
  }
}