{
  "contractName": "Did",
  "abi": [
    {
      "anonymous": false,
      "inputs": [
        {
          "indexed": false,
          "internalType": "uint256",
          "name": "id",
          "type": "uint256"
        },
        {
          "indexed": false,
          "internalType": "string",
          "name": "hash",
          "type": "string"
        },
        {
          "indexed": false,
          "internalType": "string",
          "name": "description",
          "type": "string"
        },
        {
          "indexed": false,
          "internalType": "uint256",
          "name": "tipAmount",
          "type": "uint256"
        },
        {
          "indexed": false,
          "internalType": "address payable",
          "name": "author",
          "type": "address"
        },
        {
          "indexed": false,
          "internalType": "uint256",
          "name": "commentCount",
          "type": "uint256"
        },
        {
          "components": [
            {
              "internalType": "string",
              "name": "comment",
              "type": "string"
            },
            {
              "internalType": "address payable",
              "name": "author",
              "type": "address"
            }
          ],
          "indexed": false,
          "internalType": "struct Did.Comments[]",
          "name": "comment",
          "type": "tuple[]"
        }
      ],
      "name": "ImageCreated",
      "type": "event"
    },
    {
      "anonymous": false,
      "inputs": [
        {
          "indexed": false,
          "internalType": "uint256",
          "name": "id",
          "type": "uint256"
        },
        {
          "indexed": false,
          "internalType": "string",
          "name": "hash",
          "type": "string"
        },
        {
          "indexed": false,
          "internalType": "string",
          "name": "description",
          "type": "string"
        },
        {
          "indexed": false,
          "internalType": "uint256",
          "name": "tipAmount",
          "type": "uint256"
        }
      ],
      "name": "ImageTipped",
      "type": "event"
    },
    {
      "inputs": [
        {
          "internalType": "address",
          "name": "",
          "type": "address"
        }
      ],
      "name": "DidName",
      "outputs": [
        {
          "internalType": "string",
          "name": "",
          "type": "string"
        }
      ],
      "stateMutability": "view",
      "type": "function",
      "constant": true
    },
    {
      "inputs": [
        {
          "internalType": "uint256",
          "name": "",
          "type": "uint256"
        }
      ],
      "name": "certificate",
      "outputs": [
        {
          "internalType": "string",
          "name": "name",
          "type": "string"
        },
        {
          "internalType": "string",
          "name": "content",
          "type": "string"
        },
        {
          "internalType": "string",
          "name": "issueDate",
          "type": "string"
        },
        {
          "internalType": "bool",
          "name": "isApproved",
          "type": "bool"
        },
        {
          "internalType": "address",
          "name": "approvedBy",
          "type": "address"
        },
        {
          "internalType": "address",
          "name": "requiredApprover",
          "type": "address"
        }
      ],
      "stateMutability": "view",
      "type": "function",
      "constant": true
    },
    {
      "inputs": [
        {
          "internalType": "address",
          "name": "",
          "type": "address"
        }
      ],
      "name": "certificateCount",
      "outputs": [
        {
          "internalType": "uint256",
          "name": "",
          "type": "uint256"
        }
      ],
      "stateMutability": "view",
      "type": "function",
      "constant": true
    },
    {
      "inputs": [
        {
          "internalType": "address",
          "name": "",
          "type": "address"
        },
        {
          "internalType": "uint256",
          "name": "",
          "type": "uint256"
        }
      ],
      "name": "certificateMap",
      "outputs": [
        {
          "internalType": "string",
          "name": "name",
          "type": "string"
        },
        {
          "internalType": "string",
          "name": "content",
          "type": "string"
        },
        {
          "internalType": "string",
          "name": "issueDate",
          "type": "string"
        },
        {
          "internalType": "bool",
          "name": "isApproved",
          "type": "bool"
        },
        {
          "internalType": "address",
          "name": "approvedBy",
          "type": "address"
        },
        {
          "internalType": "address",
          "name": "requiredApprover",
          "type": "address"
        }
      ],
      "stateMutability": "view",
      "type": "function",
      "constant": true
    },
    {
      "inputs": [],
      "name": "content",
      "outputs": [
        {
          "internalType": "string",
          "name": "",
          "type": "string"
        }
      ],
      "stateMutability": "view",
      "type": "function",
      "constant": true
    },
    {
      "inputs": [],
      "name": "email",
      "outputs": [
        {
          "internalType": "string",
          "name": "",
          "type": "string"
        }
      ],
      "stateMutability": "view",
      "type": "function",
      "constant": true
    },
    {
      "inputs": [],
      "name": "imageCount",
      "outputs": [
        {
          "internalType": "uint256",
          "name": "",
          "type": "uint256"
        }
      ],
      "stateMutability": "view",
      "type": "function",
      "constant": true
    },
    {
      "inputs": [
        {
          "internalType": "uint256",
          "name": "",
          "type": "uint256"
        }
      ],
      "name": "imageMap",
      "outputs": [
        {
          "internalType": "uint256",
          "name": "id",
          "type": "uint256"
        },
        {
          "internalType": "string",
          "name": "hash",
          "type": "string"
        },
        {
          "internalType": "string",
          "name": "description",
          "type": "string"
        },
        {
          "internalType": "uint256",
          "name": "tipAmount",
          "type": "uint256"
        },
        {
          "internalType": "address payable",
          "name": "author",
          "type": "address"
        },
        {
          "internalType": "uint256",
          "name": "commentCount",
          "type": "uint256"
        }
      ],
      "stateMutability": "view",
      "type": "function",
      "constant": true
    },
    {
      "inputs": [
        {
          "internalType": "address",
          "name": "",
          "type": "address"
        },
        {
          "internalType": "uint256",
          "name": "",
          "type": "uint256"
        }
      ],
      "name": "imageMapping",
      "outputs": [
        {
          "internalType": "uint256",
          "name": "id",
          "type": "uint256"
        },
        {
          "internalType": "string",
          "name": "hash",
          "type": "string"
        },
        {
          "internalType": "string",
          "name": "description",
          "type": "string"
        },
        {
          "internalType": "uint256",
          "name": "tipAmount",
          "type": "uint256"
        },
        {
          "internalType": "address payable",
          "name": "author",
          "type": "address"
        },
        {
          "internalType": "uint256",
          "name": "commentCount",
          "type": "uint256"
        }
      ],
      "stateMutability": "view",
      "type": "function",
      "constant": true
    },
    {
      "inputs": [
        {
          "internalType": "uint256",
          "name": "",
          "type": "uint256"
        }
      ],
      "name": "images",
      "outputs": [
        {
          "internalType": "uint256",
          "name": "id",
          "type": "uint256"
        },
        {
          "internalType": "string",
          "name": "hash",
          "type": "string"
        },
        {
          "internalType": "string",
          "name": "description",
          "type": "string"
        },
        {
          "internalType": "uint256",
          "name": "tipAmount",
          "type": "uint256"
        },
        {
          "internalType": "address payable",
          "name": "author",
          "type": "address"
        },
        {
          "internalType": "uint256",
          "name": "commentCount",
          "type": "uint256"
        }
      ],
      "stateMutability": "view",
      "type": "function",
      "constant": true
    },
    {
      "inputs": [],
      "name": "name",
      "outputs": [
        {
          "internalType": "string",
          "name": "",
          "type": "string"
        }
      ],
      "stateMutability": "view",
      "type": "function",
      "constant": true
    },
    {
      "inputs": [
        {
          "internalType": "uint256",
          "name": "",
          "type": "uint256"
        }
      ],
      "name": "profile",
      "outputs": [
        {
          "internalType": "string",
          "name": "name",
          "type": "string"
        },
        {
          "internalType": "string",
          "name": "email",
          "type": "string"
        },
        {
          "internalType": "string",
          "name": "content",
          "type": "string"
        }
      ],
      "stateMutability": "view",
      "type": "function",
      "constant": true
    },
    {
      "inputs": [
        {
          "internalType": "address",
          "name": "",
          "type": "address"
        }
      ],
      "name": "profileMap",
      "outputs": [
        {
          "internalType": "string",
          "name": "name",
          "type": "string"
        },
        {
          "internalType": "string",
          "name": "email",
          "type": "string"
        },
        {
          "internalType": "string",
          "name": "content",
          "type": "string"
        }
      ],
      "stateMutability": "view",
      "type": "function",
      "constant": true
    },
    {
      "inputs": [
        {
          "internalType": "uint256",
          "name": "_id",
          "type": "uint256"
        },
        {
          "internalType": "string",
          "name": "_comment",
          "type": "string"
        }
      ],
      "name": "addComment",
      "outputs": [],
      "stateMutability": "nonpayable",
      "type": "function"
    },
    {
      "inputs": [],
      "name": "getImageCount",
      "outputs": [
        {
          "internalType": "uint256",
          "name": "",
          "type": "uint256"
        }
      ],
      "stateMutability": "view",
      "type": "function",
      "constant": true
    },
    {
      "inputs": [
        {
          "internalType": "string",
          "name": "_imgHash",
          "type": "string"
        },
        {
          "internalType": "string",
          "name": "_description",
          "type": "string"
        }
      ],
      "name": "uploadImage",
      "outputs": [],
      "stateMutability": "nonpayable",
      "type": "function"
    },
    {
      "inputs": [
        {
          "internalType": "uint256",
          "name": "_id",
          "type": "uint256"
        },
        {
          "internalType": "uint256",
          "name": "amount",
          "type": "uint256"
        }
      ],
      "name": "tipImageOwner",
      "outputs": [],
      "stateMutability": "payable",
      "type": "function",
      "payable": true
    },
    {
      "inputs": [
        {
          "internalType": "uint256",
          "name": "_id",
          "type": "uint256"
        }
      ],
      "name": "getAllCommentsOfImage",
      "outputs": [
        {
          "components": [
            {
              "internalType": "string",
              "name": "comment",
              "type": "string"
            },
            {
              "internalType": "address payable",
              "name": "author",
              "type": "address"
            }
          ],
          "internalType": "struct Did.Comments[]",
          "name": "",
          "type": "tuple[]"
        }
      ],
      "stateMutability": "view",
      "type": "function",
      "constant": true
    },
    {
      "inputs": [
        {
          "internalType": "string",
          "name": "_name",
          "type": "string"
        },
        {
          "internalType": "string",
          "name": "_email",
          "type": "string"
        },
        {
          "internalType": "string",
          "name": "_content",
          "type": "string"
        }
      ],
      "name": "store",
      "outputs": [],
      "stateMutability": "nonpayable",
      "type": "function"
    },
    {
      "inputs": [],
      "name": "retrieve",
      "outputs": [
        {
          "internalType": "string",
          "name": "",
          "type": "string"
        },
        {
          "internalType": "string",
          "name": "",
          "type": "string"
        },
        {
          "internalType": "string",
          "name": "",
          "type": "string"
        }
      ],
      "stateMutability": "view",
      "type": "function",
      "constant": true
    },
    {
      "inputs": [
        {
          "internalType": "uint256",
          "name": "_index",
          "type": "uint256"
        }
      ],
      "name": "getSpecificCertificate",
      "outputs": [
        {
          "internalType": "string",
          "name": "",
          "type": "string"
        },
        {
          "internalType": "string",
          "name": "",
          "type": "string"
        },
        {
          "internalType": "string",
          "name": "",
          "type": "string"
        },
        {
          "internalType": "bool",
          "name": "",
          "type": "bool"
        }
      ],
      "stateMutability": "view",
      "type": "function",
      "constant": true
    },
    {
      "inputs": [],
      "name": "getCertificateCount",
      "outputs": [
        {
          "internalType": "uint256",
          "name": "",
          "type": "uint256"
        }
      ],
      "stateMutability": "view",
      "type": "function",
      "constant": true
    },
    {
      "inputs": [
        {
          "internalType": "address",
          "name": "_address",
          "type": "address"
        },
        {
          "internalType": "uint256",
          "name": "_index",
          "type": "uint256"
        }
      ],
      "name": "getSpecificCertificateByAddress",
      "outputs": [
        {
          "internalType": "string",
          "name": "",
          "type": "string"
        },
        {
          "internalType": "string",
          "name": "",
          "type": "string"
        },
        {
          "internalType": "string",
          "name": "",
          "type": "string"
        },
        {
          "internalType": "bool",
          "name": "",
          "type": "bool"
        }
      ],
      "stateMutability": "view",
      "type": "function",
      "constant": true
    },
    {
      "inputs": [
        {
          "internalType": "string",
          "name": "_name",
          "type": "string"
        },
        {
          "internalType": "string",
          "name": "_content",
          "type": "string"
        },
        {
          "internalType": "string",
          "name": "_issueDate",
          "type": "string"
        },
        {
          "internalType": "address",
          "name": "_approver",
          "type": "address"
        }
      ],
      "name": "addCertificate",
      "outputs": [],
      "stateMutability": "nonpayable",
      "type": "function"
    },
    {
      "inputs": [
        {
          "internalType": "address",
          "name": "_address",
          "type": "address"
        },
        {
          "internalType": "uint256",
          "name": "_index",
          "type": "uint256"
        }
      ],
      "name": "approveCertificate",
      "outputs": [],
      "stateMutability": "nonpayable",
      "type": "function"
    }
  ],
  "bytecode": "0x6080604052600060035534801561001557600080fd5b50611f3e806100256000396000f3fe6080604052600436106101665760003560e01c80638809f727116100d157806394f496b11161008a578063abc9ca9511610064578063abc9ca9514610479578063c868af8e146104a6578063f97c44a9146104c6578063ff713887146104db57600080fd5b806394f496b114610419578063a91b831414610439578063aa7e56831461045957600080fd5b80638809f727146103625780638a4d5a671461038e5780638cf67bbb146103a35780638f00f610146103b657806392053b63146103e357806393484c87146103f957600080fd5b80634ae69713116101235780634ae697131461029d5780634d1dcc22146102bd57806372cd2b1a146102ed578063792a7e261461030d578063820e93f51461032d578063848564821461034257600080fd5b806306fdde031461016b57806316115cf8146101965780632e64cec1146101c8578063365625d9146101ec578063445e54701461021e578063463eaafb1461023e575b600080fd5b34801561017757600080fd5b506101806104fb565b60405161018d91906117e9565b60405180910390f35b3480156101a257600080fd5b506101b66101b1366004611803565b610589565b60405161018d9695949392919061181c565b3480156101d457600080fd5b506101dd61077e565b60405161018d9392919061187e565b3480156101f857600080fd5b5061020c610207366004611803565b61094f565b60405161018d969594939291906118c1565b34801561022a57600080fd5b506101b6610239366004611930565b610aa0565b34801561024a57600080fd5b5061029b610259366004611930565b6001600160a01b03919091166000908152600a6020908152604080832093835292905220600301805460016001600160a81b0319909116610100330217179055565b005b3480156102a957600080fd5b5061029b6102b83660046119fd565b610ac6565b3480156102c957600080fd5b506102dd6102d8366004611930565b610b64565b60405161018d9493929190611a85565b3480156102f957600080fd5b506101dd610308366004611803565b610d5b565b34801561031957600080fd5b5061020c610328366004611930565b610f2d565b34801561033957600080fd5b50610180610f5a565b34801561034e57600080fd5b5061020c61035d366004611803565b610f67565b34801561036e57600080fd5b50336000908152600b60205260409020545b60405190815260200161018d565b34801561039a57600080fd5b50610180610f9c565b61029b6103b1366004611ad2565b610fa9565b3480156103c257600080fd5b506103806103d1366004611af4565b600b6020526000908152604090205481565b3480156103ef57600080fd5b5061038060035481565b34801561040557600080fd5b506101dd610414366004611af4565b61101e565b34801561042557600080fd5b506102dd610434366004611803565b611039565b34801561044557600080fd5b5061029b610454366004611b0f565b611291565b34801561046557600080fd5b5061029b610474366004611b73565b6113fc565b34801561048557600080fd5b50610499610494366004611803565b61148b565b60405161018d9190611bb0565b3480156104b257600080fd5b506101806104c1366004611af4565b6115c7565b3480156104d257600080fd5b50600354610380565b3480156104e757600080fd5b5061029b6104f6366004611c2f565b6115e0565b6000805461050890611cc8565b80601f016020809104026020016040519081016040528092919081815260200182805461053490611cc8565b80156105815780601f1061055657610100808354040283529160200191610581565b820191906000526020600020905b81548152906001019060200180831161056457829003601f168201915b505050505081565b6004818154811061059957600080fd5b90600052602060002090600502016000915090508060000180546105bc90611cc8565b80601f01602080910402602001604051908101604052809291908181526020018280546105e890611cc8565b80156106355780601f1061060a57610100808354040283529160200191610635565b820191906000526020600020905b81548152906001019060200180831161061857829003601f168201915b50505050509080600101805461064a90611cc8565b80601f016020809104026020016040519081016040528092919081815260200182805461067690611cc8565b80156106c35780601f10610698576101008083540402835291602001916106c3565b820191906000526020600020905b8154815290600101906020018083116106a657829003601f168201915b5050505050908060020180546106d890611cc8565b80601f016020809104026020016040519081016040528092919081815260200182805461070490611cc8565b80156107515780601f1061072657610100808354040283529160200191610751565b820191906000526020600020905b81548152906001019060200180831161073457829003601f168201915b5050506003840154600490940154929360ff8116936001600160a01b036101009092048216935016905086565b336000908152600760205260409020805460609182918291906001820190600283019083906107ac90611cc8565b80601f01602080910402602001604051908101604052809291908181526020018280546107d890611cc8565b80156108255780601f106107fa57610100808354040283529160200191610825565b820191906000526020600020905b81548152906001019060200180831161080857829003601f168201915b5050505050925081805461083890611cc8565b80601f016020809104026020016040519081016040528092919081815260200182805461086490611cc8565b80156108b15780601f10610886576101008083540402835291602001916108b1565b820191906000526020600020905b81548152906001019060200180831161089457829003601f168201915b505050505091508080546108c490611cc8565b80601f01602080910402602001604051908101604052809291908181526020018280546108f090611cc8565b801561093d5780601f106109125761010080835404028352916020019161093d565b820191906000526020600020905b81548152906001019060200180831161092057829003601f168201915b50505050509050925092509250909192565b6008602052600090815260409020805460018201805491929161097190611cc8565b80601f016020809104026020016040519081016040528092919081815260200182805461099d90611cc8565b80156109ea5780601f106109bf576101008083540402835291602001916109ea565b820191906000526020600020905b8154815290600101906020018083116109cd57829003601f168201915b5050505050908060020180546109ff90611cc8565b80601f0160208091040260200160405190810160405280929190818152602001828054610a2b90611cc8565b8015610a785780601f10610a4d57610100808354040283529160200191610a78565b820191906000526020600020905b815481529060010190602001808311610a5b57829003601f168201915b5050505060038301546004840154600590940154929390926001600160a01b03909116915086565b600a6020908152600092835260408084209091529082529020805481906105bc90611cc8565b60408051606081018252848152602080820185905281830184905233600090815260078252929092208151805192939192610b049284920190611703565b506020828101518051610b1d9260018501920190611703565b5060408201518051610b39916002840191602090910190611703565b5050336000908152600c602090815260409091208551610b5e93509091860190611703565b50505050565b6001600160a01b0382166000908152600a6020908152604080832084845290915281206003810154815460609384938493919290916001830191600284019160ff16908490610bb290611cc8565b80601f0160208091040260200160405190810160405280929190818152602001828054610bde90611cc8565b8015610c2b5780601f10610c0057610100808354040283529160200191610c2b565b820191906000526020600020905b815481529060010190602001808311610c0e57829003601f168201915b50505050509350828054610c3e90611cc8565b80601f0160208091040260200160405190810160405280929190818152602001828054610c6a90611cc8565b8015610cb75780601f10610c8c57610100808354040283529160200191610cb7565b820191906000526020600020905b815481529060010190602001808311610c9a57829003601f168201915b50505050509250818054610cca90611cc8565b80601f0160208091040260200160405190810160405280929190818152602001828054610cf690611cc8565b8015610d435780601f10610d1857610100808354040283529160200191610d43565b820191906000526020600020905b815481529060010190602001808311610d2657829003601f168201915b50505050509150935093509350935092959194509250565b60068181548110610d6b57600080fd5b9060005260206000209060030201600091509050806000018054610d8e90611cc8565b80601f0160208091040260200160405190810160405280929190818152602001828054610dba90611cc8565b8015610e075780601f10610ddc57610100808354040283529160200191610e07565b820191906000526020600020905b815481529060010190602001808311610dea57829003601f168201915b505050505090806001018054610e1c90611cc8565b80601f0160208091040260200160405190810160405280929190818152602001828054610e4890611cc8565b8015610e955780601f10610e6a57610100808354040283529160200191610e95565b820191906000526020600020905b815481529060010190602001808311610e7857829003601f168201915b505050505090806002018054610eaa90611cc8565b80601f0160208091040260200160405190810160405280929190818152602001828054610ed690611cc8565b8015610f235780601f10610ef857610100808354040283529160200191610f23565b820191906000526020600020905b815481529060010190602001808311610f0657829003601f168201915b5050505050905083565b60096020908152600092835260408084209091529082529020805460018201805491929161097190611cc8565b6001805461050890611cc8565b60058181548110610f7757600080fd5b6000918252602090912060079091020180546001820180549193509061097190611cc8565b6002805461050890611cc8565b600082815260086020526040812060038101805491928492610fcc908490611d19565b909155505060038101546040517f0d3cfd682983ef1972123c2d3c1d06c0aa262df81c420a4c1ef19ec806a20578916110119186916001860191600287019190611dd2565b60405180910390a1505050565b600760205260009081526040902080548190610d8e90611cc8565b606080606060006004858154811061105357611053611e0f565b90600052602060002090600502016000016004868154811061107757611077611e0f565b90600052602060002090600502016001016004878154811061109b5761109b611e0f565b9060005260206000209060050201600201600488815481106110bf576110bf611e0f565b906000526020600020906005020160030160009054906101000a900460ff168380546110ea90611cc8565b80601f016020809104026020016040519081016040528092919081815260200182805461111690611cc8565b80156111635780601f1061113857610100808354040283529160200191611163565b820191906000526020600020905b81548152906001019060200180831161114657829003601f168201915b5050505050935082805461117690611cc8565b80601f01602080910402602001604051908101604052809291908181526020018280546111a290611cc8565b80156111ef5780601f106111c4576101008083540402835291602001916111ef565b820191906000526020600020905b8154815290600101906020018083116111d257829003601f168201915b5050505050925081805461120290611cc8565b80601f016020809104026020016040519081016040528092919081815260200182805461122e90611cc8565b801561127b5780601f106112505761010080835404028352916020019161127b565b820191906000526020600020905b81548152906001019060200180831161125e57829003601f168201915b5050505050915093509350935093509193509193565b600082511161129f57600080fd5b60008151116112ad57600080fd5b336112b757600080fd5b600354600081815260086020908152604090912091825583516112e291600184019190860190611703565b5081516112f89060028301906020850190611703565b50600060038083018290556004830180546001600160a01b031916331790556005830182905580549161132a83611e25565b909155505060035460009081526006820160209081526040808320815160608101835291820184815282528183018490528054600181018255908452928290208151805192946002029091019261138692849290910190611703565b5060209182015160019190910180546001600160a01b0319166001600160a01b03909216919091179055600354600081815260068401909252604080832090517f9f03bb762a4613f45e2560d106d9d5fb0ae9d6ee85b849141247974454c9150a93611011939288928892913391839190611e40565b60008281526008602090815260408083206005810154845260068101835281842082518084019093528583523383850152805460018101825590855293839020825180519295939460029094029091019261145c92849290910190611703565b5060209190910151600190910180546001600160a01b0319166001600160a01b03909216919091179055505050565b600081815260086020526040812060609182905b82600501548110156115bf57600085815260068401602052604090208054829081106114cd576114cd611e0f565b90600052602060002090600202016040518060400160405290816000820180546114f690611cc8565b80601f016020809104026020016040519081016040528092919081815260200182805461152290611cc8565b801561156f5780601f106115445761010080835404028352916020019161156f565b820191906000526020600020905b81548152906001019060200180831161155257829003601f168201915b5050509183525050600191909101546001600160a01b031660209091015282518390839081106115a1576115a1611e0f565b602002602001018190525080806115b790611e25565b91505061149f565b509392505050565b600c602052600090815260409020805461050890611cc8565b6040805160c0810182528581526020808201869052818301859052600060608301819052608083018190526001600160a01b03851660a0840152338152600a8252838120600b835284822054825282529290922081518051929391926116499284920190611703565b5060208281015180516116629260018501920190611703565b506040820151805161167e916002840191602090910190611703565b50606082015160038201805460808501516001600160a81b0319909116921515610100600160a81b031916929092176101006001600160a01b039384160217905560a090920151600490910180546001600160a01b03191691909216179055336000908152600b602052604081208054916116f883611e25565b919050555050505050565b82805461170f90611cc8565b90600052602060002090601f0160209004810192826117315760008555611777565b82601f1061174a57805160ff1916838001178555611777565b82800160010185558215611777579182015b8281111561177757825182559160200191906001019061175c565b50611783929150611787565b5090565b5b808211156117835760008155600101611788565b6000815180845260005b818110156117c2576020818501810151868301820152016117a6565b818111156117d4576000602083870101525b50601f01601f19169290920160200192915050565b6020815260006117fc602083018461179c565b9392505050565b60006020828403121561181557600080fd5b5035919050565b60c08152600061182f60c083018961179c565b8281036020840152611841818961179c565b90508281036040840152611855818861179c565b951515606084015250506001600160a01b039283166080820152911660a0909101529392505050565b606081526000611891606083018661179c565b82810360208401526118a3818661179c565b905082810360408401526118b7818561179c565b9695505050505050565b86815260c0602082015260006118da60c083018861179c565b82810360408401526118ec818861179c565b606084019690965250506001600160a01b0392909216608083015260a0909101529392505050565b80356001600160a01b038116811461192b57600080fd5b919050565b6000806040838503121561194357600080fd5b61194c83611914565b946020939093013593505050565b634e487b7160e01b600052604160045260246000fd5b600082601f83011261198157600080fd5b813567ffffffffffffffff8082111561199c5761199c61195a565b604051601f8301601f19908116603f011681019082821181831017156119c4576119c461195a565b816040528381528660208588010111156119dd57600080fd5b836020870160208301376000602085830101528094505050505092915050565b600080600060608486031215611a1257600080fd5b833567ffffffffffffffff80821115611a2a57600080fd5b611a3687838801611970565b94506020860135915080821115611a4c57600080fd5b611a5887838801611970565b93506040860135915080821115611a6e57600080fd5b50611a7b86828701611970565b9150509250925092565b608081526000611a98608083018761179c565b8281036020840152611aaa818761179c565b90508281036040840152611abe818661179c565b915050821515606083015295945050505050565b60008060408385031215611ae557600080fd5b50508035926020909101359150565b600060208284031215611b0657600080fd5b6117fc82611914565b60008060408385031215611b2257600080fd5b823567ffffffffffffffff80821115611b3a57600080fd5b611b4686838701611970565b93506020850135915080821115611b5c57600080fd5b50611b6985828601611970565b9150509250929050565b60008060408385031215611b8657600080fd5b82359150602083013567ffffffffffffffff811115611ba457600080fd5b611b6985828601611970565b60006020808301818452808551808352604092508286019150828160051b87010184880160005b83811015611c2157888303603f1901855281518051878552611bfb8886018261179c565b918901516001600160a01b03169489019490945294870194925090860190600101611bd7565b509098975050505050505050565b60008060008060808587031215611c4557600080fd5b843567ffffffffffffffff80821115611c5d57600080fd5b611c6988838901611970565b95506020870135915080821115611c7f57600080fd5b611c8b88838901611970565b94506040870135915080821115611ca157600080fd5b50611cae87828801611970565b925050611cbd60608601611914565b905092959194509250565b600181811c90821680611cdc57607f821691505b60208210811415611cfd57634e487b7160e01b600052602260045260246000fd5b50919050565b634e487b7160e01b600052601160045260246000fd5b60008219821115611d2c57611d2c611d03565b500190565b8054600090600181811c9080831680611d4b57607f831692505b6020808410821415611d6d57634e487b7160e01b600052602260045260246000fd5b838852818015611d845760018114611d9857611dc6565b60ff19861689830152604089019650611dc6565b876000528160002060005b86811015611dbe5781548b8201850152908501908301611da3565b8a0183019750505b50505050505092915050565b848152608060208201526000611deb6080830186611d31565b8281036040840152611dfd8186611d31565b91505082606083015295945050505050565b634e487b7160e01b600052603260045260246000fd5b6000600019821415611e3957611e39611d03565b5060010190565b8781526000602060e081840152611e5a60e084018a61179c565b604084820381860152611e6d828b61179c565b915088606086015260018060a01b0380891660808701528760a087015285830360c08701528287548085528585019150858160051b860101896000528660002060005b83811015611ef057878303601f19018552868352611ed087840183611d31565b6001838101548816948b0194909452948901949260029092019101611eb0565b5050809750505050505050509897505050505050505056fea2646970667358221220a7a7bb1219fb79d36847a7d186e89a140201c05251bd48c1e3c3bf75c37723cf64736f6c634300080b0033",
  "immutableReferences": {},
  "source": "// SPDX-License-Identifier: MIT\r\npragma solidity ^0.8.0;\r\n\r\ncontract Did {\r\n\r\n    string public name;\r\n    string public email;\r\n    string public content;\r\n    uint public imageCount=0;\r\n    Certificate[] public certificate;\r\n    Image[] public images;\r\n    Profile[] public profile;\r\n\r\n    struct Profile{\r\n        string name;\r\n        string email;\r\n        string content;\r\n    }\r\n\r\n    // This is a comment!\r\n    struct Certificate {\r\n        string name;\r\n        string content;\r\n        string issueDate;\r\n        bool isApproved;\r\n        address approvedBy;\r\n        address requiredApprover;\r\n    }\r\n    \r\n    struct Image {\r\n        uint id;\r\n        string hash;\r\n        string description;\r\n        uint tipAmount;\r\n        address payable author;\r\n        uint commentCount;\r\n        mapping(uint => Comments[]) comment;\r\n\r\n    }\r\n\r\n    struct Comments{\r\n        string comment;\r\n        address payable author;\r\n    }\r\n\r\n    \r\n    mapping(address => Profile) public profileMap;\r\n    mapping(uint => Image) public imageMap;\r\n    mapping (address => mapping (uint => Image)) public imageMapping; \r\n    mapping (address => mapping (uint => Certificate)) public certificateMap;\r\n    mapping (address => uint256) public certificateCount;\r\n    mapping (address => string) public DidName;\r\n    \r\n    // constructor(string memory _name, string memory _email, string memory _content) {\r\n    //     name = _name;\r\n    //     email = _email;\r\n    //     content = _content;\r\n    //     DidName[msg.sender] = _name;\r\n\r\n    // }\r\n\r\n    \r\n    event ImageCreated(\r\n        uint id,\r\n        string hash,\r\n        string description,\r\n        uint tipAmount,\r\n        address payable author,\r\n        uint commentCount,\r\n        Comments[] comment\r\n    );\r\n\r\n    event ImageTipped(\r\n        uint id,\r\n        string hash,\r\n        string description,\r\n        uint tipAmount\r\n    );\r\n\r\n\r\n    function addComment(uint _id, string memory _comment) public {\r\n        // add comment to image\r\n        Image storage _image = imageMap[_id];\r\n        _image.comment[_image.commentCount].push(Comments(_comment, payable(msg.sender)));\r\n        // _image[_image.commentCount].push(Comments(_comment, payable(msg.sender)));\r\n        // _image.comment[_id].push(Comments(_comment, payable(msg.sender)));\r\n        // _image.commentCount++; \r\n    }\r\n\r\n    function getImageCount() public view returns (uint) {\r\n        return imageCount;\r\n    }\r\n\r\n\r\n\r\n\r\n    function uploadImage(string memory _imgHash, string memory _description) public {\r\n        // Make sure the image hash exists\r\n        require(bytes(_imgHash).length > 0);\r\n        // Make sure image description exists\r\n        require(bytes(_description).length > 0);\r\n        // Make sure uploader address exists\r\n        require(msg.sender!=address(0));\r\n\r\n   \r\n        //create image with 0 commentCount\r\n        Image storage image = imageMap[imageCount];\r\n        image.id = imageCount;\r\n        image.hash = _imgHash;\r\n        image.description = _description;\r\n        image.tipAmount = 0;\r\n        image.author = payable(msg.sender);\r\n        image.commentCount = 0;\r\n        imageCount++;\r\n        //initialize the comment\r\n        image.comment[imageCount].push(Comments(\"\", payable(address(0))));\r\n        \r\n        // Trigger an event\r\n        emit ImageCreated(imageCount, _imgHash, _description, 0, payable(msg.sender), 0, image.comment[imageCount]);\r\n    }\r\n\r\n    function tipImageOwner(uint _id, uint amount) public payable {\r\n        // Make sure the id is valid\r\n        // require(_id > 0 && _id <= imageCount);\r\n\r\n        // Fetch the image\r\n        Image storage _image = imageMap[ _id];\r\n\r\n\r\n        // Fetch the author\r\n        // address payable _author = _image.author;\r\n\r\n        //add the amount to the image\r\n        // _image.tipAmount += amount;\r\n\r\n        //if tipAmount is not defined, define it as 0\r\n        \r\n        _image.tipAmount += amount;\r\n\r\n        \r\n\r\n        // Trigger an event\r\n        emit ImageTipped(_id, _image.hash, _image.description, _image.tipAmount);   \r\n    }\r\n\r\n    function getAllCommentsOfImage(uint _id) public view returns (Comments[] memory) {\r\n        Image storage _image = imageMap[_id];\r\n        //loop through the comment array and return the comment\r\n        Comments[] memory comments;\r\n        for (uint i = 0; i < _image.commentCount; i++) {\r\n            comments[i] = _image.comment[_id][i];\r\n        }\r\n        return comments;\r\n\r\n    }\r\n\r\n    function store(string memory _name, string memory _email, string memory _content) public {\r\n        //store the data in the profile\r\n        profileMap[msg.sender] = Profile(_name, _email, _content);\r\n        DidName[msg.sender] = _name;\r\n\r\n    }\r\n    \r\n    function retrieve() public view returns (string memory  ,string memory  ,string memory ){\r\n\r\n        return (profileMap[msg.sender].name, profileMap[msg.sender].email, profileMap[msg.sender].content);\r\n    }\r\n\r\n\r\n\r\n    function getSpecificCertificate(uint256 _index) public view returns (string memory, string memory, string memory, bool) {\r\n        return (certificate[_index].name, certificate[_index].content, certificate[_index].issueDate, certificate[_index].isApproved);\r\n    }\r\n\r\n    function getCertificateCount() public view returns (uint256) {\r\n        return certificateCount[msg.sender];\r\n    }\r\n\r\n    function getSpecificCertificateByAddress(address _address, uint256 _index) public view returns (string memory, string memory, string memory, bool) {\r\n        return (certificateMap[_address][_index].name, certificateMap[_address][_index].content, certificateMap[_address][_index].issueDate, certificateMap[_address][_index].isApproved);\r\n    }\r\n\r\n\r\n\r\n    function addCertificate(string memory _name, string memory _content, string memory _issueDate, address _approver) public {\r\n        certificateMap[msg.sender][certificateCount[msg.sender]] = Certificate(_name, _content, _issueDate, false,address(0),_approver);\r\n        certificateCount[msg.sender]++;  \r\n    }\r\n\r\n    //approve certificate of a specific index and address\r\n    function approveCertificate(address _address, uint256 _index) public {\r\n        certificateMap[_address][_index].isApproved = true;\r\n        certificateMap[_address][_index].approvedBy = msg.sender;\r\n\r\n    }\r\n}\r\n\r\n",
  "sourcePath": "C:\\Users\\Michael\\Documents\\GitHub\\fyp_did\\did_frontend\\contracts\\Did.sol",
  "compiler": {
    "name": "solc",
    "version": "0.8.11+commit.d7f03943.Emscripten.clang"
  },
  "schemaVersion": "3.4.11",
  "updatedAt": "2022-12-29T09:20:32.340Z",
  "networkType": "ethereum",
  "devdoc": {
    "kind": "dev",
    "methods": {},
    "version": 1
  },
  "userdoc": {
    "kind": "user",
    "methods": {},
    "version": 1
  }
}