{
  "contractName": "Did",
  "abi": [
    {
      "anonymous": false,
      "inputs": [
        {
          "indexed": false,
          "internalType": "uint256",
          "name": "id",
          "type": "uint256"
        },
        {
          "indexed": false,
          "internalType": "string",
          "name": "hash",
          "type": "string"
        },
        {
          "indexed": false,
          "internalType": "string",
          "name": "description",
          "type": "string"
        },
        {
          "indexed": false,
          "internalType": "uint256",
          "name": "tipAmount",
          "type": "uint256"
        },
        {
          "indexed": false,
          "internalType": "address payable",
          "name": "author",
          "type": "address"
        },
        {
          "indexed": false,
          "internalType": "uint256",
          "name": "commentCount",
          "type": "uint256"
        },
        {
          "components": [
            {
              "internalType": "string",
              "name": "comment",
              "type": "string"
            },
            {
              "internalType": "address payable",
              "name": "author",
              "type": "address"
            }
          ],
          "indexed": false,
          "internalType": "struct Did.Comments[]",
          "name": "comment",
          "type": "tuple[]"
        }
      ],
      "name": "ImageCreated",
      "type": "event"
    },
    {
      "anonymous": false,
      "inputs": [
        {
          "indexed": false,
          "internalType": "uint256",
          "name": "id",
          "type": "uint256"
        },
        {
          "indexed": false,
          "internalType": "string",
          "name": "hash",
          "type": "string"
        },
        {
          "indexed": false,
          "internalType": "string",
          "name": "description",
          "type": "string"
        },
        {
          "indexed": false,
          "internalType": "uint256",
          "name": "tipAmount",
          "type": "uint256"
        }
      ],
      "name": "ImageTipped",
      "type": "event"
    },
    {
      "inputs": [
        {
          "internalType": "address",
          "name": "",
          "type": "address"
        }
      ],
      "name": "DidName",
      "outputs": [
        {
          "internalType": "string",
          "name": "",
          "type": "string"
        }
      ],
      "stateMutability": "view",
      "type": "function",
      "constant": true
    },
    {
      "inputs": [
        {
          "internalType": "uint256",
          "name": "",
          "type": "uint256"
        }
      ],
      "name": "certificate",
      "outputs": [
        {
          "internalType": "string",
          "name": "name",
          "type": "string"
        },
        {
          "internalType": "string",
          "name": "content",
          "type": "string"
        },
        {
          "internalType": "string",
          "name": "issueDate",
          "type": "string"
        },
        {
          "internalType": "bool",
          "name": "isApproved",
          "type": "bool"
        },
        {
          "internalType": "address",
          "name": "approvedBy",
          "type": "address"
        },
        {
          "internalType": "address",
          "name": "requiredApprover",
          "type": "address"
        }
      ],
      "stateMutability": "view",
      "type": "function",
      "constant": true
    },
    {
      "inputs": [
        {
          "internalType": "address",
          "name": "",
          "type": "address"
        }
      ],
      "name": "certificateCount",
      "outputs": [
        {
          "internalType": "uint256",
          "name": "",
          "type": "uint256"
        }
      ],
      "stateMutability": "view",
      "type": "function",
      "constant": true
    },
    {
      "inputs": [
        {
          "internalType": "address",
          "name": "",
          "type": "address"
        },
        {
          "internalType": "uint256",
          "name": "",
          "type": "uint256"
        }
      ],
      "name": "certificateMap",
      "outputs": [
        {
          "internalType": "string",
          "name": "name",
          "type": "string"
        },
        {
          "internalType": "string",
          "name": "content",
          "type": "string"
        },
        {
          "internalType": "string",
          "name": "issueDate",
          "type": "string"
        },
        {
          "internalType": "bool",
          "name": "isApproved",
          "type": "bool"
        },
        {
          "internalType": "address",
          "name": "approvedBy",
          "type": "address"
        },
        {
          "internalType": "address",
          "name": "requiredApprover",
          "type": "address"
        }
      ],
      "stateMutability": "view",
      "type": "function",
      "constant": true
    },
    {
      "inputs": [],
      "name": "imageCount",
      "outputs": [
        {
          "internalType": "uint256",
          "name": "",
          "type": "uint256"
        }
      ],
      "stateMutability": "view",
      "type": "function",
      "constant": true
    },
    {
      "inputs": [
        {
          "internalType": "uint256",
          "name": "",
          "type": "uint256"
        }
      ],
      "name": "imageMap",
      "outputs": [
        {
          "internalType": "uint256",
          "name": "id",
          "type": "uint256"
        },
        {
          "internalType": "string",
          "name": "hash",
          "type": "string"
        },
        {
          "internalType": "string",
          "name": "description",
          "type": "string"
        },
        {
          "internalType": "uint256",
          "name": "tipAmount",
          "type": "uint256"
        },
        {
          "internalType": "address payable",
          "name": "author",
          "type": "address"
        },
        {
          "internalType": "uint256",
          "name": "commentCount",
          "type": "uint256"
        }
      ],
      "stateMutability": "view",
      "type": "function",
      "constant": true
    },
    {
      "inputs": [
        {
          "internalType": "address",
          "name": "",
          "type": "address"
        },
        {
          "internalType": "uint256",
          "name": "",
          "type": "uint256"
        }
      ],
      "name": "imageMapping",
      "outputs": [
        {
          "internalType": "uint256",
          "name": "id",
          "type": "uint256"
        },
        {
          "internalType": "string",
          "name": "hash",
          "type": "string"
        },
        {
          "internalType": "string",
          "name": "description",
          "type": "string"
        },
        {
          "internalType": "uint256",
          "name": "tipAmount",
          "type": "uint256"
        },
        {
          "internalType": "address payable",
          "name": "author",
          "type": "address"
        },
        {
          "internalType": "uint256",
          "name": "commentCount",
          "type": "uint256"
        }
      ],
      "stateMutability": "view",
      "type": "function",
      "constant": true
    },
    {
      "inputs": [
        {
          "internalType": "uint256",
          "name": "",
          "type": "uint256"
        }
      ],
      "name": "images",
      "outputs": [
        {
          "internalType": "uint256",
          "name": "id",
          "type": "uint256"
        },
        {
          "internalType": "string",
          "name": "hash",
          "type": "string"
        },
        {
          "internalType": "string",
          "name": "description",
          "type": "string"
        },
        {
          "internalType": "uint256",
          "name": "tipAmount",
          "type": "uint256"
        },
        {
          "internalType": "address payable",
          "name": "author",
          "type": "address"
        },
        {
          "internalType": "uint256",
          "name": "commentCount",
          "type": "uint256"
        }
      ],
      "stateMutability": "view",
      "type": "function",
      "constant": true
    },
    {
      "inputs": [
        {
          "internalType": "uint256",
          "name": "",
          "type": "uint256"
        }
      ],
      "name": "profile",
      "outputs": [
        {
          "internalType": "string",
          "name": "name",
          "type": "string"
        },
        {
          "internalType": "string",
          "name": "email",
          "type": "string"
        },
        {
          "internalType": "string",
          "name": "content",
          "type": "string"
        }
      ],
      "stateMutability": "view",
      "type": "function",
      "constant": true
    },
    {
      "inputs": [
        {
          "internalType": "address",
          "name": "",
          "type": "address"
        }
      ],
      "name": "profileMap",
      "outputs": [
        {
          "internalType": "string",
          "name": "name",
          "type": "string"
        },
        {
          "internalType": "string",
          "name": "email",
          "type": "string"
        },
        {
          "internalType": "string",
          "name": "content",
          "type": "string"
        }
      ],
      "stateMutability": "view",
      "type": "function",
      "constant": true
    },
    {
      "inputs": [
        {
          "internalType": "uint256",
          "name": "_id",
          "type": "uint256"
        },
        {
          "internalType": "string",
          "name": "_comment",
          "type": "string"
        }
      ],
      "name": "addComment",
      "outputs": [],
      "stateMutability": "nonpayable",
      "type": "function"
    },
    {
      "inputs": [],
      "name": "getImageCount",
      "outputs": [
        {
          "internalType": "uint256",
          "name": "",
          "type": "uint256"
        }
      ],
      "stateMutability": "view",
      "type": "function",
      "constant": true
    },
    {
      "inputs": [
        {
          "internalType": "address",
          "name": "_address",
          "type": "address"
        }
      ],
      "name": "getUserProfile",
      "outputs": [
        {
          "internalType": "string",
          "name": "",
          "type": "string"
        },
        {
          "internalType": "string",
          "name": "",
          "type": "string"
        },
        {
          "internalType": "string",
          "name": "",
          "type": "string"
        }
      ],
      "stateMutability": "view",
      "type": "function",
      "constant": true
    },
    {
      "inputs": [
        {
          "internalType": "address",
          "name": "_address",
          "type": "address"
        }
      ],
      "name": "getUserCertificate",
      "outputs": [
        {
          "components": [
            {
              "internalType": "string",
              "name": "name",
              "type": "string"
            },
            {
              "internalType": "string",
              "name": "content",
              "type": "string"
            },
            {
              "internalType": "string",
              "name": "issueDate",
              "type": "string"
            },
            {
              "internalType": "bool",
              "name": "isApproved",
              "type": "bool"
            },
            {
              "internalType": "address",
              "name": "approvedBy",
              "type": "address"
            },
            {
              "internalType": "address",
              "name": "requiredApprover",
              "type": "address"
            }
          ],
          "internalType": "struct Did.Certificate[]",
          "name": "",
          "type": "tuple[]"
        }
      ],
      "stateMutability": "view",
      "type": "function",
      "constant": true
    },
    {
      "inputs": [
        {
          "internalType": "string",
          "name": "_imgHash",
          "type": "string"
        },
        {
          "internalType": "string",
          "name": "_description",
          "type": "string"
        }
      ],
      "name": "uploadImage",
      "outputs": [],
      "stateMutability": "nonpayable",
      "type": "function"
    },
    {
      "inputs": [
        {
          "internalType": "uint256",
          "name": "_id",
          "type": "uint256"
        },
        {
          "internalType": "uint256",
          "name": "amount",
          "type": "uint256"
        }
      ],
      "name": "tipImageOwner",
      "outputs": [],
      "stateMutability": "payable",
      "type": "function",
      "payable": true
    },
    {
      "inputs": [
        {
          "internalType": "uint256",
          "name": "_id",
          "type": "uint256"
        }
      ],
      "name": "getAllCommentsOfImage",
      "outputs": [
        {
          "components": [
            {
              "internalType": "string",
              "name": "comment",
              "type": "string"
            },
            {
              "internalType": "address payable",
              "name": "author",
              "type": "address"
            }
          ],
          "internalType": "struct Did.Comments[]",
          "name": "",
          "type": "tuple[]"
        }
      ],
      "stateMutability": "view",
      "type": "function",
      "constant": true
    },
    {
      "inputs": [
        {
          "internalType": "string",
          "name": "_name",
          "type": "string"
        },
        {
          "internalType": "string",
          "name": "_email",
          "type": "string"
        },
        {
          "internalType": "string",
          "name": "_content",
          "type": "string"
        }
      ],
      "name": "store",
      "outputs": [],
      "stateMutability": "nonpayable",
      "type": "function"
    },
    {
      "inputs": [],
      "name": "retrieve",
      "outputs": [
        {
          "internalType": "string",
          "name": "",
          "type": "string"
        },
        {
          "internalType": "string",
          "name": "",
          "type": "string"
        },
        {
          "internalType": "string",
          "name": "",
          "type": "string"
        }
      ],
      "stateMutability": "view",
      "type": "function",
      "constant": true
    },
    {
      "inputs": [],
      "name": "getCertificateCount",
      "outputs": [
        {
          "internalType": "uint256",
          "name": "",
          "type": "uint256"
        }
      ],
      "stateMutability": "view",
      "type": "function",
      "constant": true
    },
    {
      "inputs": [
        {
          "internalType": "string",
          "name": "_name",
          "type": "string"
        },
        {
          "internalType": "string",
          "name": "_content",
          "type": "string"
        },
        {
          "internalType": "string",
          "name": "_issueDate",
          "type": "string"
        },
        {
          "internalType": "address",
          "name": "_approver",
          "type": "address"
        }
      ],
      "name": "addCertificate",
      "outputs": [],
      "stateMutability": "nonpayable",
      "type": "function"
    },
    {
      "inputs": [
        {
          "internalType": "address",
          "name": "_address",
          "type": "address"
        },
        {
          "internalType": "uint256",
          "name": "_index",
          "type": "uint256"
        }
      ],
      "name": "approveCertificate",
      "outputs": [],
      "stateMutability": "nonpayable",
      "type": "function"
    }
  ],
  "bytecode": "0x60806040526000805534801561001457600080fd5b50611f18806100246000396000f3fe6080604052600436106101355760003560e01c80638cf67bbb116100ab578063a91b83141161006f578063a91b8314146103b9578063aa7e5683146103d9578063abc9ca95146103f9578063c868af8e14610426578063f97c44a914610453578063ff7138871461046857600080fd5b80638cf67bbb146103235780638f00f6101461033657806392053b631461036357806393484c8714610379578063987ee1561461039957600080fd5b8063463eaafb116100fd578063463eaafb146102185780634ae697131461027757806372cd2b1a14610297578063792a7e26146102b757806384856482146102d75780638809f727146102f757600080fd5b80630bfdc7d71461013a57806316115cf8146101705780632e64cec1146101a2578063365625d9146101c6578063445e5470146101f8575b600080fd5b34801561014657600080fd5b5061015a61015536600461171d565b610488565b604051610167919061178c565b60405180910390f35b34801561017c57600080fd5b5061019061018b36600461185c565b6106fd565b60405161016796959493929190611875565b3480156101ae57600080fd5b506101b76108f2565b604051610167939291906118d7565b3480156101d257600080fd5b506101e66101e136600461185c565b610ac3565b6040516101679695949392919061191a565b34801561020457600080fd5b5061019061021336600461196d565b610c14565b34801561022457600080fd5b5061027561023336600461196d565b6001600160a01b0391909116600090815260076020908152604080832093835292905220600301805460016001600160a81b0319909116610100330217179055565b005b34801561028357600080fd5b50610275610292366004611a3a565b610c3a565b3480156102a357600080fd5b506101b76102b236600461185c565b610cd8565b3480156102c357600080fd5b506101e66102d236600461196d565b610eaa565b3480156102e357600080fd5b506101e66102f236600461185c565b610ed7565b34801561030357600080fd5b50336000908152600860205260409020545b604051908152602001610167565b610275610331366004611ac2565b610f0c565b34801561034257600080fd5b5061031561035136600461171d565b60086020526000908152604090205481565b34801561036f57600080fd5b5061031560005481565b34801561038557600080fd5b506101b761039436600461171d565b610f81565b3480156103a557600080fd5b506101b76103b436600461171d565b610f9c565b3480156103c557600080fd5b506102756103d4366004611ae4565b611178565b3480156103e557600080fd5b506102756103f4366004611b48565b6112e1565b34801561040557600080fd5b5061041961041436600461185c565b61136f565b6040516101679190611b85565b34801561043257600080fd5b5061044661044136600461171d565b6114ab565b6040516101679190611bf6565b34801561045f57600080fd5b50600054610315565b34801561047457600080fd5b50610275610483366004611c09565b611545565b60608060005b6001600160a01b0384166000908152600860205260409020548110156106f6576001600160a01b038416600090815260076020908152604080832084845290915290819020815160c081019092528054829082906104eb90611ca2565b80601f016020809104026020016040519081016040528092919081815260200182805461051790611ca2565b80156105645780601f1061053957610100808354040283529160200191610564565b820191906000526020600020905b81548152906001019060200180831161054757829003601f168201915b5050505050815260200160018201805461057d90611ca2565b80601f01602080910402602001604051908101604052809291908181526020018280546105a990611ca2565b80156105f65780601f106105cb576101008083540402835291602001916105f6565b820191906000526020600020905b8154815290600101906020018083116105d957829003601f168201915b5050505050815260200160028201805461060f90611ca2565b80601f016020809104026020016040519081016040528092919081815260200182805461063b90611ca2565b80156106885780601f1061065d57610100808354040283529160200191610688565b820191906000526020600020905b81548152906001019060200180831161066b57829003601f168201915b5050509183525050600382015460ff8116151560208301526001600160a01b036101009091048116604083015260049092015490911660609091015282518390839081106106d8576106d8611cdd565b602002602001018190525080806106ee90611d09565b91505061048e565b5092915050565b6001818154811061070d57600080fd5b906000526020600020906005020160009150905080600001805461073090611ca2565b80601f016020809104026020016040519081016040528092919081815260200182805461075c90611ca2565b80156107a95780601f1061077e576101008083540402835291602001916107a9565b820191906000526020600020905b81548152906001019060200180831161078c57829003601f168201915b5050505050908060010180546107be90611ca2565b80601f01602080910402602001604051908101604052809291908181526020018280546107ea90611ca2565b80156108375780601f1061080c57610100808354040283529160200191610837565b820191906000526020600020905b81548152906001019060200180831161081a57829003601f168201915b50505050509080600201805461084c90611ca2565b80601f016020809104026020016040519081016040528092919081815260200182805461087890611ca2565b80156108c55780601f1061089a576101008083540402835291602001916108c5565b820191906000526020600020905b8154815290600101906020018083116108a857829003601f168201915b5050506003840154600490940154929360ff8116936001600160a01b036101009092048216935016905086565b3360009081526004602052604090208054606091829182919060018201906002830190839061092090611ca2565b80601f016020809104026020016040519081016040528092919081815260200182805461094c90611ca2565b80156109995780601f1061096e57610100808354040283529160200191610999565b820191906000526020600020905b81548152906001019060200180831161097c57829003601f168201915b505050505092508180546109ac90611ca2565b80601f01602080910402602001604051908101604052809291908181526020018280546109d890611ca2565b8015610a255780601f106109fa57610100808354040283529160200191610a25565b820191906000526020600020905b815481529060010190602001808311610a0857829003601f168201915b50505050509150808054610a3890611ca2565b80601f0160208091040260200160405190810160405280929190818152602001828054610a6490611ca2565b8015610ab15780601f10610a8657610100808354040283529160200191610ab1565b820191906000526020600020905b815481529060010190602001808311610a9457829003601f168201915b50505050509050925092509250909192565b60056020526000908152604090208054600182018054919291610ae590611ca2565b80601f0160208091040260200160405190810160405280929190818152602001828054610b1190611ca2565b8015610b5e5780601f10610b3357610100808354040283529160200191610b5e565b820191906000526020600020905b815481529060010190602001808311610b4157829003601f168201915b505050505090806002018054610b7390611ca2565b80601f0160208091040260200160405190810160405280929190818152602001828054610b9f90611ca2565b8015610bec5780601f10610bc157610100808354040283529160200191610bec565b820191906000526020600020905b815481529060010190602001808311610bcf57829003601f168201915b5050505060038301546004840154600590940154929390926001600160a01b03909116915086565b600760209081526000928352604080842090915290825290208054819061073090611ca2565b60408051606081018252848152602080820185905281830184905233600090815260048252929092208151805192939192610c789284920190611668565b506020828101518051610c919260018501920190611668565b5060408201518051610cad916002840191602090910190611668565b50503360009081526009602090815260409091208551610cd293509091860190611668565b50505050565b60038181548110610ce857600080fd5b9060005260206000209060030201600091509050806000018054610d0b90611ca2565b80601f0160208091040260200160405190810160405280929190818152602001828054610d3790611ca2565b8015610d845780601f10610d5957610100808354040283529160200191610d84565b820191906000526020600020905b815481529060010190602001808311610d6757829003601f168201915b505050505090806001018054610d9990611ca2565b80601f0160208091040260200160405190810160405280929190818152602001828054610dc590611ca2565b8015610e125780601f10610de757610100808354040283529160200191610e12565b820191906000526020600020905b815481529060010190602001808311610df557829003601f168201915b505050505090806002018054610e2790611ca2565b80601f0160208091040260200160405190810160405280929190818152602001828054610e5390611ca2565b8015610ea05780601f10610e7557610100808354040283529160200191610ea0565b820191906000526020600020905b815481529060010190602001808311610e8357829003601f168201915b5050505050905083565b600660209081526000928352604080842090915290825290208054600182018054919291610ae590611ca2565b60028181548110610ee757600080fd5b60009182526020909120600790910201805460018201805491935090610ae590611ca2565b600082815260056020526040812060038101805491928492610f2f908490611d24565b909155505060038101546040517f0d3cfd682983ef1972123c2d3c1d06c0aa262df81c420a4c1ef19ec806a2057891610f749186916001860191600287019190611ddd565b60405180910390a1505050565b600460205260009081526040902080548190610d0b90611ca2565b6001600160a01b038116600090815260046020526040902080546060918291829190600182019060028301908390610fd390611ca2565b80601f0160208091040260200160405190810160405280929190818152602001828054610fff90611ca2565b801561104c5780601f106110215761010080835404028352916020019161104c565b820191906000526020600020905b81548152906001019060200180831161102f57829003601f168201915b5050505050925081805461105f90611ca2565b80601f016020809104026020016040519081016040528092919081815260200182805461108b90611ca2565b80156110d85780601f106110ad576101008083540402835291602001916110d8565b820191906000526020600020905b8154815290600101906020018083116110bb57829003601f168201915b505050505091508080546110eb90611ca2565b80601f016020809104026020016040519081016040528092919081815260200182805461111790611ca2565b80156111645780601f1061113957610100808354040283529160200191611164565b820191906000526020600020905b81548152906001019060200180831161114757829003601f168201915b505050505090509250925092509193909250565b600082511161118657600080fd5b600081511161119457600080fd5b3361119e57600080fd5b60008054808252600560209081526040909220908155835190916111c9916001840191860190611668565b5081516111df9060028301906020850190611668565b506000600382018190556004820180546001600160a01b03191633179055600582018190558054908061121183611d09565b90915550506000805481526006820160209081526040808320815160608101835291820184815282528183018490528054600181018255908452928290208151805192946002029091019261126b92849290910190611668565b5060209182015160019190910180546001600160a01b0319166001600160a01b039092169190911790556000805480825260068401909252604080822090517f9f03bb762a4613f45e2560d106d9d5fb0ae9d6ee85b849141247974454c9150a93610f7493909288928892913391839190611e1a565b600082815260056020818152604080842092830154845260068301825280842081518083019092528582523382840152805460018101825590855293829020815180519495929460029093029091019261134092849290910190611668565b5060209190910151600190910180546001600160a01b0319166001600160a01b03909216919091179055505050565b600081815260056020526040812060609182905b82600501548110156114a357600085815260068401602052604090208054829081106113b1576113b1611cdd565b90600052602060002090600202016040518060400160405290816000820180546113da90611ca2565b80601f016020809104026020016040519081016040528092919081815260200182805461140690611ca2565b80156114535780601f1061142857610100808354040283529160200191611453565b820191906000526020600020905b81548152906001019060200180831161143657829003601f168201915b5050509183525050600191909101546001600160a01b0316602090910152825183908390811061148557611485611cdd565b6020026020010181905250808061149b90611d09565b915050611383565b509392505050565b600960205260009081526040902080546114c490611ca2565b80601f01602080910402602001604051908101604052809291908181526020018280546114f090611ca2565b801561153d5780601f106115125761010080835404028352916020019161153d565b820191906000526020600020905b81548152906001019060200180831161152057829003601f168201915b505050505081565b6040805160c0810182528581526020808201869052818301859052600060608301819052608083018190526001600160a01b03851660a0840152338152600782528381206008835284822054825282529290922081518051929391926115ae9284920190611668565b5060208281015180516115c79260018501920190611668565b50604082015180516115e3916002840191602090910190611668565b50606082015160038201805460808501516001600160a81b0319909116921515610100600160a81b031916929092176101006001600160a01b039384160217905560a090920151600490910180546001600160a01b0319169190921617905533600090815260086020526040812080549161165d83611d09565b919050555050505050565b82805461167490611ca2565b90600052602060002090601f01602090048101928261169657600085556116dc565b82601f106116af57805160ff19168380011785556116dc565b828001600101855582156116dc579182015b828111156116dc5782518255916020019190600101906116c1565b506116e89291506116ec565b5090565b5b808211156116e857600081556001016116ed565b80356001600160a01b038116811461171857600080fd5b919050565b60006020828403121561172f57600080fd5b61173882611701565b9392505050565b6000815180845260005b8181101561176557602081850181015186830182015201611749565b81811115611777576000602083870101525b50601f01601f19169290920160200192915050565b60006020808301818452808551808352604092508286019150828160051b87010184880160005b8381101561184e57603f19898403018552815160c081518186526117d98287018261173f565b915050888201518582038a8701526117f1828261173f565b9150508782015185820389870152611809828261173f565b6060848101511515908801526080808501516001600160a01b039081169189019190915260a094850151169390960192909252505093860193908601906001016117b3565b509098975050505050505050565b60006020828403121561186e57600080fd5b5035919050565b60c08152600061188860c083018961173f565b828103602084015261189a818961173f565b905082810360408401526118ae818861173f565b951515606084015250506001600160a01b039283166080820152911660a0909101529392505050565b6060815260006118ea606083018661173f565b82810360208401526118fc818661173f565b90508281036040840152611910818561173f565b9695505050505050565b86815260c06020820152600061193360c083018861173f565b8281036040840152611945818861173f565b606084019690965250506001600160a01b0392909216608083015260a0909101529392505050565b6000806040838503121561198057600080fd5b61198983611701565b946020939093013593505050565b634e487b7160e01b600052604160045260246000fd5b600082601f8301126119be57600080fd5b813567ffffffffffffffff808211156119d9576119d9611997565b604051601f8301601f19908116603f01168101908282118183101715611a0157611a01611997565b81604052838152866020858801011115611a1a57600080fd5b836020870160208301376000602085830101528094505050505092915050565b600080600060608486031215611a4f57600080fd5b833567ffffffffffffffff80821115611a6757600080fd5b611a73878388016119ad565b94506020860135915080821115611a8957600080fd5b611a95878388016119ad565b93506040860135915080821115611aab57600080fd5b50611ab8868287016119ad565b9150509250925092565b60008060408385031215611ad557600080fd5b50508035926020909101359150565b60008060408385031215611af757600080fd5b823567ffffffffffffffff80821115611b0f57600080fd5b611b1b868387016119ad565b93506020850135915080821115611b3157600080fd5b50611b3e858286016119ad565b9150509250929050565b60008060408385031215611b5b57600080fd5b82359150602083013567ffffffffffffffff811115611b7957600080fd5b611b3e858286016119ad565b60006020808301818452808551808352604092508286019150828160051b87010184880160005b8381101561184e57888303603f1901855281518051878552611bd08886018261173f565b918901516001600160a01b03169489019490945294870194925090860190600101611bac565b602081526000611738602083018461173f565b60008060008060808587031215611c1f57600080fd5b843567ffffffffffffffff80821115611c3757600080fd5b611c43888389016119ad565b95506020870135915080821115611c5957600080fd5b611c65888389016119ad565b94506040870135915080821115611c7b57600080fd5b50611c88878288016119ad565b925050611c9760608601611701565b905092959194509250565b600181811c90821680611cb657607f821691505b60208210811415611cd757634e487b7160e01b600052602260045260246000fd5b50919050565b634e487b7160e01b600052603260045260246000fd5b634e487b7160e01b600052601160045260246000fd5b6000600019821415611d1d57611d1d611cf3565b5060010190565b60008219821115611d3757611d37611cf3565b500190565b8054600090600181811c9080831680611d5657607f831692505b6020808410821415611d7857634e487b7160e01b600052602260045260246000fd5b838852818015611d8f5760018114611da357611dd1565b60ff19861689830152604089019650611dd1565b876000528160002060005b86811015611dc95781548b8201850152908501908301611dae565b8a0183019750505b50505050505092915050565b848152608060208201526000611df66080830186611d3c565b8281036040840152611e088186611d3c565b91505082606083015295945050505050565b8781526000602060e081840152611e3460e084018a61173f565b604084820381860152611e47828b61173f565b915088606086015260018060a01b0380891660808701528760a087015285830360c08701528287548085528585019150858160051b860101896000528660002060005b83811015611eca57878303601f19018552868352611eaa87840183611d3c565b6001838101548816948b0194909452948901949260029092019101611e8a565b5050809750505050505050509897505050505050505056fea2646970667358221220e4bcd3ce655821b852b9dfe6115622d71788675fb37e7383f8ae5d46b03b76d964736f6c634300080b0033",
  "immutableReferences": {},
  "source": "// SPDX-License-Identifier: MIT\r\npragma solidity ^0.8.0;\r\n\r\ncontract Did {\r\n\r\n    // string public name;\r\n    // string public email;\r\n    // string public content;\r\n    uint public imageCount=0;\r\n    Certificate[] public certificate;\r\n    Image[] public images;\r\n    Profile[] public profile;\r\n\r\n    struct Profile{\r\n        string name;\r\n        string email;\r\n        string content;\r\n    }\r\n\r\n    // This is a comment!\r\n    struct Certificate {\r\n        string name;\r\n        string content;\r\n        string issueDate;\r\n        bool isApproved;\r\n        address approvedBy;\r\n        address requiredApprover;\r\n    }\r\n    \r\n    struct Image {\r\n        uint id;\r\n        string hash;\r\n        string description;\r\n        uint tipAmount;\r\n        address payable author;\r\n        uint commentCount;\r\n        mapping(uint => Comments[]) comment;\r\n\r\n    }\r\n\r\n    struct Comments{\r\n        string comment;\r\n        address payable author;\r\n    }\r\n\r\n    mapping(address => Profile) public profileMap;\r\n    mapping(uint => Image) public imageMap;\r\n    mapping (address => mapping (uint => Image)) public imageMapping; \r\n    mapping (address => mapping (uint => Certificate)) public certificateMap;\r\n    mapping (address => uint256) public certificateCount;\r\n    mapping (address => string) public DidName;\r\n    \r\n    event ImageCreated(\r\n        uint id,\r\n        string hash,\r\n        string description,\r\n        uint tipAmount,\r\n        address payable author,\r\n        uint commentCount,\r\n        Comments[] comment\r\n    );\r\n\r\n    event ImageTipped(\r\n        uint id,\r\n        string hash,\r\n        string description,\r\n        uint tipAmount\r\n    );\r\n\r\n\r\n    function addComment(uint _id, string memory _comment) public {\r\n        // add comment to image\r\n        Image storage _image = imageMap[_id];\r\n        _image.comment[_image.commentCount].push(Comments(_comment, payable(msg.sender)));\r\n\r\n    }\r\n\r\n\r\n    function getImageCount() public view returns (uint) {\r\n        return imageCount;\r\n    }\r\n\r\n    function getUserProfile(address _address) public view returns (string memory, string memory, string memory) {\r\n        return (profileMap[_address].name, profileMap[_address].email, profileMap[_address].content);\r\n    }\r\n\r\n    function getUserCertificate(address _address) public view returns (Certificate[] memory) {\r\n        Certificate[] memory certificates;\r\n        for (uint i = 0; i < certificateCount[_address]; i++) {\r\n            certificates[i] = certificateMap[_address][i];\r\n        }\r\n        return certificates;\r\n    }\r\n\r\n\r\n    function uploadImage(string memory _imgHash, string memory _description) public {\r\n        // Make sure the image hash exists\r\n        require(bytes(_imgHash).length > 0);\r\n        // Make sure image description exists\r\n        require(bytes(_description).length > 0);\r\n        // Make sure uploader address exists\r\n        require(msg.sender!=address(0));\r\n\r\n        //create image with 0 commentCount\r\n        Image storage image = imageMap[imageCount];\r\n        image.id = imageCount;\r\n        image.hash = _imgHash;\r\n        image.description = _description;\r\n        image.tipAmount = 0;\r\n        image.author = payable(msg.sender);\r\n        image.commentCount = 0;\r\n        imageCount++;\r\n        //initialize the comment\r\n        image.comment[imageCount].push(Comments(\"\", payable(address(0))));\r\n        \r\n        // Trigger an event\r\n        emit ImageCreated(imageCount, _imgHash, _description, 0, payable(msg.sender), 0, image.comment[imageCount]);\r\n    }\r\n\r\n    function tipImageOwner(uint _id, uint amount) public payable {\r\n        // Fetch the image\r\n        Image storage _image = imageMap[ _id];     \r\n        _image.tipAmount += amount;\r\n        // Trigger an event\r\n        emit ImageTipped(_id, _image.hash, _image.description, _image.tipAmount);   \r\n    }\r\n\r\n    function getAllCommentsOfImage(uint _id) public view returns (Comments[] memory) {\r\n        Image storage _image = imageMap[_id];\r\n        //loop through the comment array and return the comment\r\n        Comments[] memory comments;\r\n        for (uint i = 0; i < _image.commentCount; i++) {\r\n            comments[i] = _image.comment[_id][i];\r\n        }\r\n        return comments;\r\n\r\n    }\r\n\r\n    function store(string memory _name, string memory _email, string memory _content) public {\r\n        //store the data in the profile\r\n        profileMap[msg.sender] = Profile(_name, _email, _content);\r\n        DidName[msg.sender] = _name;\r\n\r\n    }\r\n    \r\n    function retrieve() public view returns (string memory  ,string memory  ,string memory ){\r\n\r\n        return (profileMap[msg.sender].name, profileMap[msg.sender].email, profileMap[msg.sender].content);\r\n    }\r\n\r\n\r\n    function getCertificateCount() public view returns (uint256) {\r\n        return certificateCount[msg.sender];\r\n    }\r\n\r\n\r\n    function addCertificate(string memory _name, string memory _content, string memory _issueDate, address _approver) public {\r\n        certificateMap[msg.sender][certificateCount[msg.sender]] = Certificate(_name, _content, _issueDate, false,address(0),_approver);\r\n        certificateCount[msg.sender]++;  \r\n    }\r\n\r\n    //approve certificate of a specific index and address\r\n    function approveCertificate(address _address, uint256 _index) public {\r\n        certificateMap[_address][_index].isApproved = true;\r\n        certificateMap[_address][_index].approvedBy = msg.sender;\r\n    }\r\n}\r\n\r\n",
  "sourcePath": "C:\\Users\\Michael\\Documents\\GitHub\\fyp_did\\did_frontend\\contracts\\Did.sol",
  "compiler": {
    "name": "solc",
    "version": "0.8.11+commit.d7f03943.Emscripten.clang"
  },
  "schemaVersion": "3.4.11",
  "updatedAt": "2023-04-04T07:25:29.627Z",
  "networkType": "ethereum",
  "devdoc": {
    "kind": "dev",
    "methods": {},
    "version": 1
  },
  "userdoc": {
    "kind": "user",
    "methods": {},
    "version": 1
  }
}