{
  "contractName": "Did",
  "abi": [
    {
      "anonymous": false,
      "inputs": [
        {
          "indexed": false,
          "internalType": "uint256",
          "name": "id",
          "type": "uint256"
        },
        {
          "indexed": false,
          "internalType": "string",
          "name": "hash",
          "type": "string"
        },
        {
          "indexed": false,
          "internalType": "string",
          "name": "description",
          "type": "string"
        },
        {
          "indexed": false,
          "internalType": "uint256",
          "name": "tipAmount",
          "type": "uint256"
        },
        {
          "indexed": false,
          "internalType": "address payable",
          "name": "author",
          "type": "address"
        },
        {
          "indexed": false,
          "internalType": "uint256",
          "name": "commentCount",
          "type": "uint256"
        },
        {
          "components": [
            {
              "internalType": "string",
              "name": "comment",
              "type": "string"
            },
            {
              "internalType": "address payable",
              "name": "author",
              "type": "address"
            }
          ],
          "indexed": false,
          "internalType": "struct Did.Comments[]",
          "name": "comment",
          "type": "tuple[]"
        }
      ],
      "name": "ImageCreated",
      "type": "event"
    },
    {
      "anonymous": false,
      "inputs": [
        {
          "indexed": false,
          "internalType": "uint256",
          "name": "id",
          "type": "uint256"
        },
        {
          "indexed": false,
          "internalType": "string",
          "name": "hash",
          "type": "string"
        },
        {
          "indexed": false,
          "internalType": "string",
          "name": "description",
          "type": "string"
        },
        {
          "indexed": false,
          "internalType": "uint256",
          "name": "tipAmount",
          "type": "uint256"
        }
      ],
      "name": "ImageTipped",
      "type": "event"
    },
    {
      "inputs": [
        {
          "internalType": "address",
          "name": "",
          "type": "address"
        }
      ],
      "name": "DidName",
      "outputs": [
        {
          "internalType": "string",
          "name": "",
          "type": "string"
        }
      ],
      "stateMutability": "view",
      "type": "function",
      "constant": true
    },
    {
      "inputs": [
        {
          "internalType": "uint256",
          "name": "",
          "type": "uint256"
        }
      ],
      "name": "certificate",
      "outputs": [
        {
          "internalType": "string",
          "name": "name",
          "type": "string"
        },
        {
          "internalType": "string",
          "name": "content",
          "type": "string"
        },
        {
          "internalType": "string",
          "name": "issueDate",
          "type": "string"
        },
        {
          "internalType": "bool",
          "name": "isApproved",
          "type": "bool"
        },
        {
          "internalType": "address",
          "name": "approvedBy",
          "type": "address"
        },
        {
          "internalType": "address",
          "name": "requiredApprover",
          "type": "address"
        }
      ],
      "stateMutability": "view",
      "type": "function",
      "constant": true
    },
    {
      "inputs": [
        {
          "internalType": "address",
          "name": "",
          "type": "address"
        }
      ],
      "name": "certificateCount",
      "outputs": [
        {
          "internalType": "uint256",
          "name": "",
          "type": "uint256"
        }
      ],
      "stateMutability": "view",
      "type": "function",
      "constant": true
    },
    {
      "inputs": [
        {
          "internalType": "address",
          "name": "",
          "type": "address"
        },
        {
          "internalType": "uint256",
          "name": "",
          "type": "uint256"
        }
      ],
      "name": "certificateMap",
      "outputs": [
        {
          "internalType": "string",
          "name": "name",
          "type": "string"
        },
        {
          "internalType": "string",
          "name": "content",
          "type": "string"
        },
        {
          "internalType": "string",
          "name": "issueDate",
          "type": "string"
        },
        {
          "internalType": "bool",
          "name": "isApproved",
          "type": "bool"
        },
        {
          "internalType": "address",
          "name": "approvedBy",
          "type": "address"
        },
        {
          "internalType": "address",
          "name": "requiredApprover",
          "type": "address"
        }
      ],
      "stateMutability": "view",
      "type": "function",
      "constant": true
    },
    {
      "inputs": [],
      "name": "imageCount",
      "outputs": [
        {
          "internalType": "uint256",
          "name": "",
          "type": "uint256"
        }
      ],
      "stateMutability": "view",
      "type": "function",
      "constant": true
    },
    {
      "inputs": [
        {
          "internalType": "uint256",
          "name": "",
          "type": "uint256"
        }
      ],
      "name": "imageMap",
      "outputs": [
        {
          "internalType": "uint256",
          "name": "id",
          "type": "uint256"
        },
        {
          "internalType": "string",
          "name": "hash",
          "type": "string"
        },
        {
          "internalType": "string",
          "name": "description",
          "type": "string"
        },
        {
          "internalType": "uint256",
          "name": "tipAmount",
          "type": "uint256"
        },
        {
          "internalType": "address payable",
          "name": "author",
          "type": "address"
        },
        {
          "internalType": "uint256",
          "name": "commentCount",
          "type": "uint256"
        }
      ],
      "stateMutability": "view",
      "type": "function",
      "constant": true
    },
    {
      "inputs": [
        {
          "internalType": "address",
          "name": "",
          "type": "address"
        },
        {
          "internalType": "uint256",
          "name": "",
          "type": "uint256"
        }
      ],
      "name": "imageMapping",
      "outputs": [
        {
          "internalType": "uint256",
          "name": "id",
          "type": "uint256"
        },
        {
          "internalType": "string",
          "name": "hash",
          "type": "string"
        },
        {
          "internalType": "string",
          "name": "description",
          "type": "string"
        },
        {
          "internalType": "uint256",
          "name": "tipAmount",
          "type": "uint256"
        },
        {
          "internalType": "address payable",
          "name": "author",
          "type": "address"
        },
        {
          "internalType": "uint256",
          "name": "commentCount",
          "type": "uint256"
        }
      ],
      "stateMutability": "view",
      "type": "function",
      "constant": true
    },
    {
      "inputs": [
        {
          "internalType": "uint256",
          "name": "",
          "type": "uint256"
        }
      ],
      "name": "images",
      "outputs": [
        {
          "internalType": "uint256",
          "name": "id",
          "type": "uint256"
        },
        {
          "internalType": "string",
          "name": "hash",
          "type": "string"
        },
        {
          "internalType": "string",
          "name": "description",
          "type": "string"
        },
        {
          "internalType": "uint256",
          "name": "tipAmount",
          "type": "uint256"
        },
        {
          "internalType": "address payable",
          "name": "author",
          "type": "address"
        },
        {
          "internalType": "uint256",
          "name": "commentCount",
          "type": "uint256"
        }
      ],
      "stateMutability": "view",
      "type": "function",
      "constant": true
    },
    {
      "inputs": [
        {
          "internalType": "uint256",
          "name": "",
          "type": "uint256"
        }
      ],
      "name": "profile",
      "outputs": [
        {
          "internalType": "string",
          "name": "name",
          "type": "string"
        },
        {
          "internalType": "string",
          "name": "email",
          "type": "string"
        },
        {
          "internalType": "string",
          "name": "content",
          "type": "string"
        }
      ],
      "stateMutability": "view",
      "type": "function",
      "constant": true
    },
    {
      "inputs": [
        {
          "internalType": "address",
          "name": "",
          "type": "address"
        }
      ],
      "name": "profileMap",
      "outputs": [
        {
          "internalType": "string",
          "name": "name",
          "type": "string"
        },
        {
          "internalType": "string",
          "name": "email",
          "type": "string"
        },
        {
          "internalType": "string",
          "name": "content",
          "type": "string"
        }
      ],
      "stateMutability": "view",
      "type": "function",
      "constant": true
    },
    {
      "inputs": [
        {
          "internalType": "uint256",
          "name": "_id",
          "type": "uint256"
        },
        {
          "internalType": "string",
          "name": "_comment",
          "type": "string"
        }
      ],
      "name": "addComment",
      "outputs": [],
      "stateMutability": "nonpayable",
      "type": "function"
    },
    {
      "inputs": [],
      "name": "getImageCount",
      "outputs": [
        {
          "internalType": "uint256",
          "name": "",
          "type": "uint256"
        }
      ],
      "stateMutability": "view",
      "type": "function",
      "constant": true
    },
    {
      "inputs": [
        {
          "internalType": "string",
          "name": "_imgHash",
          "type": "string"
        },
        {
          "internalType": "string",
          "name": "_description",
          "type": "string"
        }
      ],
      "name": "uploadImage",
      "outputs": [],
      "stateMutability": "nonpayable",
      "type": "function"
    },
    {
      "inputs": [
        {
          "internalType": "uint256",
          "name": "_id",
          "type": "uint256"
        },
        {
          "internalType": "uint256",
          "name": "amount",
          "type": "uint256"
        }
      ],
      "name": "tipImageOwner",
      "outputs": [],
      "stateMutability": "payable",
      "type": "function",
      "payable": true
    },
    {
      "inputs": [
        {
          "internalType": "uint256",
          "name": "_id",
          "type": "uint256"
        }
      ],
      "name": "getAllCommentsOfImage",
      "outputs": [
        {
          "components": [
            {
              "internalType": "string",
              "name": "comment",
              "type": "string"
            },
            {
              "internalType": "address payable",
              "name": "author",
              "type": "address"
            }
          ],
          "internalType": "struct Did.Comments[]",
          "name": "",
          "type": "tuple[]"
        }
      ],
      "stateMutability": "view",
      "type": "function",
      "constant": true
    },
    {
      "inputs": [
        {
          "internalType": "string",
          "name": "_name",
          "type": "string"
        },
        {
          "internalType": "string",
          "name": "_email",
          "type": "string"
        },
        {
          "internalType": "string",
          "name": "_content",
          "type": "string"
        }
      ],
      "name": "store",
      "outputs": [],
      "stateMutability": "nonpayable",
      "type": "function"
    },
    {
      "inputs": [],
      "name": "retrieve",
      "outputs": [
        {
          "internalType": "string",
          "name": "",
          "type": "string"
        },
        {
          "internalType": "string",
          "name": "",
          "type": "string"
        },
        {
          "internalType": "string",
          "name": "",
          "type": "string"
        }
      ],
      "stateMutability": "view",
      "type": "function",
      "constant": true
    },
    {
      "inputs": [],
      "name": "getCertificateCount",
      "outputs": [
        {
          "internalType": "uint256",
          "name": "",
          "type": "uint256"
        }
      ],
      "stateMutability": "view",
      "type": "function",
      "constant": true
    },
    {
      "inputs": [
        {
          "internalType": "string",
          "name": "_name",
          "type": "string"
        },
        {
          "internalType": "string",
          "name": "_content",
          "type": "string"
        },
        {
          "internalType": "string",
          "name": "_issueDate",
          "type": "string"
        },
        {
          "internalType": "address",
          "name": "_approver",
          "type": "address"
        }
      ],
      "name": "addCertificate",
      "outputs": [],
      "stateMutability": "nonpayable",
      "type": "function"
    },
    {
      "inputs": [
        {
          "internalType": "address",
          "name": "_address",
          "type": "address"
        },
        {
          "internalType": "uint256",
          "name": "_index",
          "type": "uint256"
        }
      ],
      "name": "approveCertificate",
      "outputs": [],
      "stateMutability": "nonpayable",
      "type": "function"
    }
  ],
  "bytecode": "0x60806040526000805534801561001457600080fd5b506119a2806100246000396000f3fe60806040526004361061011f5760003560e01c80638cf67bbb116100a0578063aa7e568311610064578063aa7e568314610376578063abc9ca9514610396578063c868af8e146103c3578063f97c44a9146103f0578063ff7138871461040557600080fd5b80638cf67bbb146102e05780638f00f610146102f357806392053b631461032057806393484c8714610336578063a91b83141461035657600080fd5b80634ae69713116100e75780634ae697131461023457806372cd2b1a14610254578063792a7e261461027457806384856482146102945780638809f727146102b457600080fd5b806316115cf8146101245780632e64cec11461015f578063365625d914610183578063445e5470146101b5578063463eaafb146101d5575b600080fd5b34801561013057600080fd5b5061014461013f36600461124d565b610425565b604051610156969594939291906112b3565b60405180910390f35b34801561016b57600080fd5b5061017461061a565b60405161015693929190611315565b34801561018f57600080fd5b506101a361019e36600461124d565b6107eb565b60405161015696959493929190611358565b3480156101c157600080fd5b506101446101d03660046113c7565b61093c565b3480156101e157600080fd5b506102326101f03660046113c7565b6001600160a01b0391909116600090815260076020908152604080832093835292905220600301805460016001600160a81b0319909116610100330217179055565b005b34801561024057600080fd5b5061023261024f366004611494565b610962565b34801561026057600080fd5b5061017461026f36600461124d565b610a00565b34801561028057600080fd5b506101a361028f3660046113c7565b610bd2565b3480156102a057600080fd5b506101a36102af36600461124d565b610bff565b3480156102c057600080fd5b50336000908152600860205260409020545b604051908152602001610156565b6102326102ee36600461151c565b610c34565b3480156102ff57600080fd5b506102d261030e36600461153e565b60086020526000908152604090205481565b34801561032c57600080fd5b506102d260005481565b34801561034257600080fd5b5061017461035136600461153e565b610ca9565b34801561036257600080fd5b50610232610371366004611560565b610cc4565b34801561038257600080fd5b506102326103913660046115c4565b610e2d565b3480156103a257600080fd5b506103b66103b136600461124d565b610ebb565b6040516101569190611601565b3480156103cf57600080fd5b506103e36103de36600461153e565b610ff7565b6040516101569190611680565b3480156103fc57600080fd5b506000546102d2565b34801561041157600080fd5b50610232610420366004611693565b611091565b6001818154811061043557600080fd5b90600052602060002090600502016000915090508060000180546104589061172c565b80601f01602080910402602001604051908101604052809291908181526020018280546104849061172c565b80156104d15780601f106104a6576101008083540402835291602001916104d1565b820191906000526020600020905b8154815290600101906020018083116104b457829003601f168201915b5050505050908060010180546104e69061172c565b80601f01602080910402602001604051908101604052809291908181526020018280546105129061172c565b801561055f5780601f106105345761010080835404028352916020019161055f565b820191906000526020600020905b81548152906001019060200180831161054257829003601f168201915b5050505050908060020180546105749061172c565b80601f01602080910402602001604051908101604052809291908181526020018280546105a09061172c565b80156105ed5780601f106105c2576101008083540402835291602001916105ed565b820191906000526020600020905b8154815290600101906020018083116105d057829003601f168201915b5050506003840154600490940154929360ff8116936001600160a01b036101009092048216935016905086565b336000908152600460205260409020805460609182918291906001820190600283019083906106489061172c565b80601f01602080910402602001604051908101604052809291908181526020018280546106749061172c565b80156106c15780601f10610696576101008083540402835291602001916106c1565b820191906000526020600020905b8154815290600101906020018083116106a457829003601f168201915b505050505092508180546106d49061172c565b80601f01602080910402602001604051908101604052809291908181526020018280546107009061172c565b801561074d5780601f106107225761010080835404028352916020019161074d565b820191906000526020600020905b81548152906001019060200180831161073057829003601f168201915b505050505091508080546107609061172c565b80601f016020809104026020016040519081016040528092919081815260200182805461078c9061172c565b80156107d95780601f106107ae576101008083540402835291602001916107d9565b820191906000526020600020905b8154815290600101906020018083116107bc57829003601f168201915b50505050509050925092509250909192565b6005602052600090815260409020805460018201805491929161080d9061172c565b80601f01602080910402602001604051908101604052809291908181526020018280546108399061172c565b80156108865780601f1061085b57610100808354040283529160200191610886565b820191906000526020600020905b81548152906001019060200180831161086957829003601f168201915b50505050509080600201805461089b9061172c565b80601f01602080910402602001604051908101604052809291908181526020018280546108c79061172c565b80156109145780601f106108e957610100808354040283529160200191610914565b820191906000526020600020905b8154815290600101906020018083116108f757829003601f168201915b5050505060038301546004840154600590940154929390926001600160a01b03909116915086565b60076020908152600092835260408084209091529082529020805481906104589061172c565b604080516060810182528481526020808201859052818301849052336000908152600482529290922081518051929391926109a092849201906111b4565b5060208281015180516109b992600185019201906111b4565b50604082015180516109d59160028401916020909101906111b4565b505033600090815260096020908152604090912085516109fa935090918601906111b4565b50505050565b60038181548110610a1057600080fd5b9060005260206000209060030201600091509050806000018054610a339061172c565b80601f0160208091040260200160405190810160405280929190818152602001828054610a5f9061172c565b8015610aac5780601f10610a8157610100808354040283529160200191610aac565b820191906000526020600020905b815481529060010190602001808311610a8f57829003601f168201915b505050505090806001018054610ac19061172c565b80601f0160208091040260200160405190810160405280929190818152602001828054610aed9061172c565b8015610b3a5780601f10610b0f57610100808354040283529160200191610b3a565b820191906000526020600020905b815481529060010190602001808311610b1d57829003601f168201915b505050505090806002018054610b4f9061172c565b80601f0160208091040260200160405190810160405280929190818152602001828054610b7b9061172c565b8015610bc85780601f10610b9d57610100808354040283529160200191610bc8565b820191906000526020600020905b815481529060010190602001808311610bab57829003601f168201915b5050505050905083565b60066020908152600092835260408084209091529082529020805460018201805491929161080d9061172c565b60028181548110610c0f57600080fd5b6000918252602090912060079091020180546001820180549193509061080d9061172c565b600082815260056020526040812060038101805491928492610c5790849061177d565b909155505060038101546040517f0d3cfd682983ef1972123c2d3c1d06c0aa262df81c420a4c1ef19ec806a2057891610c9c9186916001860191600287019190611836565b60405180910390a1505050565b600460205260009081526040902080548190610a339061172c565b6000825111610cd257600080fd5b6000815111610ce057600080fd5b33610cea57600080fd5b6000805480825260056020908152604090922090815583519091610d159160018401918601906111b4565b508151610d2b90600283019060208501906111b4565b506000600382018190556004820180546001600160a01b031916331790556005820181905580549080610d5d83611873565b909155505060008054815260068201602090815260408083208151606081018352918201848152825281830184905280546001810182559084529282902081518051929460020290910192610db7928492909101906111b4565b5060209182015160019190910180546001600160a01b0319166001600160a01b039092169190911790556000805480825260068401909252604080822090517f9f03bb762a4613f45e2560d106d9d5fb0ae9d6ee85b849141247974454c9150a93610c9c9390928892889291339183919061188e565b6000828152600560208181526040808420928301548452600683018252808420815180830190925285825233828401528054600181018255908552938290208151805194959294600290930290910192610e8c928492909101906111b4565b5060209190910151600190910180546001600160a01b0319166001600160a01b03909216919091179055505050565b600081815260056020526040812060609182905b8260050154811015610fef5760008581526006840160205260409020805482908110610efd57610efd611956565b9060005260206000209060020201604051806040016040529081600082018054610f269061172c565b80601f0160208091040260200160405190810160405280929190818152602001828054610f529061172c565b8015610f9f5780601f10610f7457610100808354040283529160200191610f9f565b820191906000526020600020905b815481529060010190602001808311610f8257829003601f168201915b5050509183525050600191909101546001600160a01b03166020909101528251839083908110610fd157610fd1611956565b60200260200101819052508080610fe790611873565b915050610ecf565b509392505050565b600960205260009081526040902080546110109061172c565b80601f016020809104026020016040519081016040528092919081815260200182805461103c9061172c565b80156110895780601f1061105e57610100808354040283529160200191611089565b820191906000526020600020905b81548152906001019060200180831161106c57829003601f168201915b505050505081565b6040805160c0810182528581526020808201869052818301859052600060608301819052608083018190526001600160a01b03851660a0840152338152600782528381206008835284822054825282529290922081518051929391926110fa92849201906111b4565b50602082810151805161111392600185019201906111b4565b506040820151805161112f9160028401916020909101906111b4565b50606082015160038201805460808501516001600160a81b0319909116921515610100600160a81b031916929092176101006001600160a01b039384160217905560a090920151600490910180546001600160a01b031916919092161790553360009081526008602052604081208054916111a983611873565b919050555050505050565b8280546111c09061172c565b90600052602060002090601f0160209004810192826111e25760008555611228565b82601f106111fb57805160ff1916838001178555611228565b82800160010185558215611228579182015b8281111561122857825182559160200191906001019061120d565b50611234929150611238565b5090565b5b808211156112345760008155600101611239565b60006020828403121561125f57600080fd5b5035919050565b6000815180845260005b8181101561128c57602081850181015186830182015201611270565b8181111561129e576000602083870101525b50601f01601f19169290920160200192915050565b60c0815260006112c660c0830189611266565b82810360208401526112d88189611266565b905082810360408401526112ec8188611266565b951515606084015250506001600160a01b039283166080820152911660a0909101529392505050565b6060815260006113286060830186611266565b828103602084015261133a8186611266565b9050828103604084015261134e8185611266565b9695505050505050565b86815260c06020820152600061137160c0830188611266565b82810360408401526113838188611266565b606084019690965250506001600160a01b0392909216608083015260a0909101529392505050565b80356001600160a01b03811681146113c257600080fd5b919050565b600080604083850312156113da57600080fd5b6113e3836113ab565b946020939093013593505050565b634e487b7160e01b600052604160045260246000fd5b600082601f83011261141857600080fd5b813567ffffffffffffffff80821115611433576114336113f1565b604051601f8301601f19908116603f0116810190828211818310171561145b5761145b6113f1565b8160405283815286602085880101111561147457600080fd5b836020870160208301376000602085830101528094505050505092915050565b6000806000606084860312156114a957600080fd5b833567ffffffffffffffff808211156114c157600080fd5b6114cd87838801611407565b945060208601359150808211156114e357600080fd5b6114ef87838801611407565b9350604086013591508082111561150557600080fd5b5061151286828701611407565b9150509250925092565b6000806040838503121561152f57600080fd5b50508035926020909101359150565b60006020828403121561155057600080fd5b611559826113ab565b9392505050565b6000806040838503121561157357600080fd5b823567ffffffffffffffff8082111561158b57600080fd5b61159786838701611407565b935060208501359150808211156115ad57600080fd5b506115ba85828601611407565b9150509250929050565b600080604083850312156115d757600080fd5b82359150602083013567ffffffffffffffff8111156115f557600080fd5b6115ba85828601611407565b60006020808301818452808551808352604092508286019150828160051b87010184880160005b8381101561167257888303603f190185528151805187855261164c88860182611266565b918901516001600160a01b03169489019490945294870194925090860190600101611628565b509098975050505050505050565b6020815260006115596020830184611266565b600080600080608085870312156116a957600080fd5b843567ffffffffffffffff808211156116c157600080fd5b6116cd88838901611407565b955060208701359150808211156116e357600080fd5b6116ef88838901611407565b9450604087013591508082111561170557600080fd5b5061171287828801611407565b925050611721606086016113ab565b905092959194509250565b600181811c9082168061174057607f821691505b6020821081141561176157634e487b7160e01b600052602260045260246000fd5b50919050565b634e487b7160e01b600052601160045260246000fd5b6000821982111561179057611790611767565b500190565b8054600090600181811c90808316806117af57607f831692505b60208084108214156117d157634e487b7160e01b600052602260045260246000fd5b8388528180156117e857600181146117fc5761182a565b60ff1986168983015260408901965061182a565b876000528160002060005b868110156118225781548b8201850152908501908301611807565b8a0183019750505b50505050505092915050565b84815260806020820152600061184f6080830186611795565b82810360408401526118618186611795565b91505082606083015295945050505050565b600060001982141561188757611887611767565b5060010190565b8781526000602060e0818401526118a860e084018a611266565b6040848203818601526118bb828b611266565b915088606086015260018060a01b0380891660808701528760a087015285830360c08701528287548085528585019150858160051b860101896000528660002060005b8381101561193e57878303601f1901855286835261191e87840183611795565b6001838101548816948b01949094529489019492600290920191016118fe565b50508097505050505050505098975050505050505050565b634e487b7160e01b600052603260045260246000fdfea2646970667358221220e1066e8828604bdb2aa239b497181ec567ec2c47a5653385045eaeeaf494b6a464736f6c634300080b0033",
  "immutableReferences": {},
  "source": "// SPDX-License-Identifier: MIT\r\npragma solidity ^0.8.0;\r\n\r\ncontract Did {\r\n\r\n    // string public name;\r\n    // string public email;\r\n    // string public content;\r\n    uint public imageCount=0;\r\n    Certificate[] public certificate;\r\n    Image[] public images;\r\n    Profile[] public profile;\r\n\r\n    struct Profile{\r\n        string name;\r\n        string email;\r\n        string content;\r\n    }\r\n\r\n    // This is a comment!\r\n    struct Certificate {\r\n        string name;\r\n        string content;\r\n        string issueDate;\r\n        bool isApproved;\r\n        address approvedBy;\r\n        address requiredApprover;\r\n    }\r\n    \r\n    struct Image {\r\n        uint id;\r\n        string hash;\r\n        string description;\r\n        uint tipAmount;\r\n        address payable author;\r\n        uint commentCount;\r\n        mapping(uint => Comments[]) comment;\r\n\r\n    }\r\n\r\n    struct Comments{\r\n        string comment;\r\n        address payable author;\r\n    }\r\n\r\n    mapping(address => Profile) public profileMap;\r\n    mapping(uint => Image) public imageMap;\r\n    mapping (address => mapping (uint => Image)) public imageMapping; \r\n    mapping (address => mapping (uint => Certificate)) public certificateMap;\r\n    mapping (address => uint256) public certificateCount;\r\n    mapping (address => string) public DidName;\r\n    \r\n    event ImageCreated(\r\n        uint id,\r\n        string hash,\r\n        string description,\r\n        uint tipAmount,\r\n        address payable author,\r\n        uint commentCount,\r\n        Comments[] comment\r\n    );\r\n\r\n    event ImageTipped(\r\n        uint id,\r\n        string hash,\r\n        string description,\r\n        uint tipAmount\r\n    );\r\n\r\n\r\n    function addComment(uint _id, string memory _comment) public {\r\n        // add comment to image\r\n        Image storage _image = imageMap[_id];\r\n        _image.comment[_image.commentCount].push(Comments(_comment, payable(msg.sender)));\r\n\r\n    }\r\n\r\n    function getImageCount() public view returns (uint) {\r\n        return imageCount;\r\n    }\r\n\r\n\r\n    function uploadImage(string memory _imgHash, string memory _description) public {\r\n        // Make sure the image hash exists\r\n        require(bytes(_imgHash).length > 0);\r\n        // Make sure image description exists\r\n        require(bytes(_description).length > 0);\r\n        // Make sure uploader address exists\r\n        require(msg.sender!=address(0));\r\n\r\n        //create image with 0 commentCount\r\n        Image storage image = imageMap[imageCount];\r\n        image.id = imageCount;\r\n        image.hash = _imgHash;\r\n        image.description = _description;\r\n        image.tipAmount = 0;\r\n        image.author = payable(msg.sender);\r\n        image.commentCount = 0;\r\n        imageCount++;\r\n        //initialize the comment\r\n        image.comment[imageCount].push(Comments(\"\", payable(address(0))));\r\n        \r\n        // Trigger an event\r\n        emit ImageCreated(imageCount, _imgHash, _description, 0, payable(msg.sender), 0, image.comment[imageCount]);\r\n    }\r\n\r\n    function tipImageOwner(uint _id, uint amount) public payable {\r\n        // Fetch the image\r\n        Image storage _image = imageMap[ _id];     \r\n        _image.tipAmount += amount;\r\n        // Trigger an event\r\n        emit ImageTipped(_id, _image.hash, _image.description, _image.tipAmount);   \r\n    }\r\n\r\n    function getAllCommentsOfImage(uint _id) public view returns (Comments[] memory) {\r\n        Image storage _image = imageMap[_id];\r\n        //loop through the comment array and return the comment\r\n        Comments[] memory comments;\r\n        for (uint i = 0; i < _image.commentCount; i++) {\r\n            comments[i] = _image.comment[_id][i];\r\n        }\r\n        return comments;\r\n\r\n    }\r\n\r\n    function store(string memory _name, string memory _email, string memory _content) public {\r\n        //store the data in the profile\r\n        profileMap[msg.sender] = Profile(_name, _email, _content);\r\n        DidName[msg.sender] = _name;\r\n\r\n    }\r\n    \r\n    function retrieve() public view returns (string memory  ,string memory  ,string memory ){\r\n\r\n        return (profileMap[msg.sender].name, profileMap[msg.sender].email, profileMap[msg.sender].content);\r\n    }\r\n\r\n\r\n    function getCertificateCount() public view returns (uint256) {\r\n        return certificateCount[msg.sender];\r\n    }\r\n\r\n\r\n    function addCertificate(string memory _name, string memory _content, string memory _issueDate, address _approver) public {\r\n        certificateMap[msg.sender][certificateCount[msg.sender]] = Certificate(_name, _content, _issueDate, false,address(0),_approver);\r\n        certificateCount[msg.sender]++;  \r\n    }\r\n\r\n    //approve certificate of a specific index and address\r\n    function approveCertificate(address _address, uint256 _index) public {\r\n        certificateMap[_address][_index].isApproved = true;\r\n        certificateMap[_address][_index].approvedBy = msg.sender;\r\n\r\n    }\r\n}\r\n\r\n",
  "sourcePath": "C:\\Users\\Michael\\Documents\\GitHub\\fyp_did\\did_frontend\\contracts\\Did.sol",
  "compiler": {
    "name": "solc",
    "version": "0.8.11+commit.d7f03943.Emscripten.clang"
  },
  "schemaVersion": "3.4.11",
  "updatedAt": "2023-04-01T13:09:50.564Z",
  "networkType": "ethereum",
  "devdoc": {
    "kind": "dev",
    "methods": {},
    "version": 1
  },
  "userdoc": {
    "kind": "user",
    "methods": {},
    "version": 1
  }
}